{
  "_format": "hh-sol-artifact-1",
  "contractName": "CertificationFactory",
  "sourceName": "contracts/contractFactory.sol",
  "abi": [
    {
      "inputs": [],
      "stateMutability": "nonpayable",
      "type": "constructor"
    },
    {
      "anonymous": false,
      "inputs": [
        {
          "indexed": true,
          "internalType": "address",
          "name": "certificationProxy",
          "type": "address"
        },
        {
          "indexed": true,
          "internalType": "string",
          "name": "name",
          "type": "string"
        },
        {
          "indexed": true,
          "internalType": "string",
          "name": "symbol",
          "type": "string"
        }
      ],
      "name": "CertificationCreated",
      "type": "event"
    },
    {
      "inputs": [
        {
          "internalType": "string",
          "name": "name",
          "type": "string"
        },
        {
          "internalType": "string",
          "name": "symbol",
          "type": "string"
        },
        {
          "internalType": "string",
          "name": "baseURI",
          "type": "string"
        }
      ],
      "name": "createCertification",
      "outputs": [
        {
          "internalType": "address",
          "name": "",
          "type": "address"
        }
      ],
      "stateMutability": "nonpayable",
      "type": "function"
    },
    {
      "inputs": [
        {
          "internalType": "uint256",
          "name": "",
          "type": "uint256"
        }
      ],
      "name": "deployedCertifications",
      "outputs": [
        {
          "internalType": "address",
          "name": "",
          "type": "address"
        }
      ],
      "stateMutability": "view",
      "type": "function"
    },
    {
      "inputs": [],
      "name": "getDeployedCertifications",
      "outputs": [
        {
          "internalType": "address[]",
          "name": "",
          "type": "address[]"
        }
      ],
      "stateMutability": "view",
      "type": "function"
    },
    {
      "inputs": [],
      "name": "nftImplementation",
      "outputs": [
        {
          "internalType": "address",
          "name": "",
          "type": "address"
        }
      ],
      "stateMutability": "view",
      "type": "function"
    },
    {
      "inputs": [],
      "name": "proxyAdmin",
      "outputs": [
        {
          "internalType": "contract ProxyAdmin",
          "name": "",
          "type": "address"
        }
      ],
      "stateMutability": "view",
      "type": "function"
    }
  ],
  "bytecode": "0x60c060405234801561001057600080fd5b50600060405161001f90610099565b604051809103906000f08015801561003b573d6000803e3d6000fd5b506001600160a01b038116608052604051909150339061005a906100a6565b6001600160a01b039091168152602001604051809103906000f080158015610086573d6000803e3d6000fd5b506001600160a01b031660a052506100b3565b611ae98061154183390190565b61052c8061302a83390190565b60805160a05161145d6100e4600039600081816091015261019b01526000818160e00152610179015261145d6000f3fe608060405234801561001057600080fd5b50600436106100575760003560e01c80631f3202881461005c5780633e47158c1461008c5780634fdf1dc1146100b3578063a12f2fbc146100c6578063f61ac58b146100db575b600080fd5b61006f61006a366004610311565b610102565b6040516001600160a01b0390911681526020015b60405180910390f35b61006f7f000000000000000000000000000000000000000000000000000000000000000081565b61006f6100c13660046103cf565b61012c565b6100ce6102a2565b6040516100839190610463565b61006f7f000000000000000000000000000000000000000000000000000000000000000081565b6000818154811061011257600080fd5b6000918252602090912001546001600160a01b0316905081565b6000808484843360405160240161014694939291906104ff565b60408051601f198184030181529181526020820180516001600160e01b0316635c6d8da160e01b179052519091506000907f0000000000000000000000000000000000000000000000000000000000000000907f00000000000000000000000000000000000000000000000000000000000000009084906101c690610304565b6101d293929190610552565b604051809103906000f0801580156101ee573d6000803e3d6000fd5b50600080546001810182559080527f290decd9548b62a8d60345a988386fc84ba6bc95484008f6362f93160ef3e5630180546001600160a01b0319166001600160a01b038316179055604051909150610248908690610587565b60405180910390208660405161025e9190610587565b604051908190038120906001600160a01b038416907fff43a94912f79118f54f6e96d629ede2654396d23823176c3a0a6c547684487190600090a495945050505050565b606060008054806020026020016040519081016040528092919081815260200182805480156102fa57602002820191906000526020600020905b81546001600160a01b031681526001909101906020018083116102dc575b5050505050905090565b610e84806105a483390190565b60006020828403121561032357600080fd5b5035919050565b634e487b7160e01b600052604160045260246000fd5b600082601f83011261035157600080fd5b813567ffffffffffffffff81111561036b5761036b61032a565b604051601f8201601f19908116603f0116810167ffffffffffffffff8111828210171561039a5761039a61032a565b6040528181528382016020018510156103b257600080fd5b816020850160208301376000918101602001919091529392505050565b6000806000606084860312156103e457600080fd5b833567ffffffffffffffff8111156103fb57600080fd5b61040786828701610340565b935050602084013567ffffffffffffffff81111561042457600080fd5b61043086828701610340565b925050604084013567ffffffffffffffff81111561044d57600080fd5b61045986828701610340565b9150509250925092565b602080825282518282018190526000918401906040840190835b818110156104a45783516001600160a01b031683526020938401939092019160010161047d565b509095945050505050565b60005b838110156104ca5781810151838201526020016104b2565b50506000910152565b600081518084526104eb8160208601602086016104af565b601f01601f19169290920160200192915050565b60808152600061051260808301876104d3565b828103602084015261052481876104d3565b9050828103604084015261053881866104d3565b91505060018060a01b038316606083015295945050505050565b6001600160a01b0384811682528316602082015260606040820181905260009061057e908301846104d3565b95945050505050565b600082516105998184602087016104af565b919091019291505056fe60a0604052604051610e84380380610e848339810160408190526100229161039d565b828161002e828261008f565b50508160405161003d9061033a565b6001600160a01b039091168152602001604051809103906000f080158015610069573d6000803e3d6000fd5b506001600160a01b031660805261008761008260805190565b6100ee565b50505061048f565b6100988261015c565b6040516001600160a01b038316907fbc7cd75a20ee27fd9adebab32041f755214dbc6bffa90cc0225b39da2e5c2d3b90600090a28051156100e2576100dd82826101db565b505050565b6100ea610252565b5050565b7f7e644d79422f17c01e4894b5f4f588d331ebfa28653d42ae832dc59e38c9798f61012e600080516020610e64833981519152546001600160a01b031690565b604080516001600160a01b03928316815291841660208301520160405180910390a161015981610273565b50565b806001600160a01b03163b60000361019757604051634c9c8ce360e01b81526001600160a01b03821660048201526024015b60405180910390fd5b807f360894a13ba1a3210667c828492db98dca3e2076cc3735a920a3ca505d382bbc5b80546001600160a01b0319166001600160a01b039290921691909117905550565b6060600080846001600160a01b0316846040516101f89190610473565b600060405180830381855af49150503d8060008114610233576040519150601f19603f3d011682016040523d82523d6000602084013e610238565b606091505b5090925090506102498583836102b2565b95945050505050565b34156102715760405163b398979f60e01b815260040160405180910390fd5b565b6001600160a01b03811661029d57604051633173bdd160e11b81526000600482015260240161018e565b80600080516020610e648339815191526101ba565b6060826102c7576102c282610311565b61030a565b81511580156102de57506001600160a01b0384163b155b1561030757604051639996b31560e01b81526001600160a01b038516600482015260240161018e565b50805b9392505050565b8051156103215780518082602001fd5b60405163d6bda27560e01b815260040160405180910390fd5b61052c8061093883390190565b80516001600160a01b038116811461035e57600080fd5b919050565b634e487b7160e01b600052604160045260246000fd5b60005b8381101561039457818101518382015260200161037c565b50506000910152565b6000806000606084860312156103b257600080fd5b6103bb84610347565b92506103c960208501610347565b60408501519092506001600160401b038111156103e557600080fd5b8401601f810186136103f657600080fd5b80516001600160401b0381111561040f5761040f610363565b604051601f8201601f19908116603f011681016001600160401b038111828210171561043d5761043d610363565b60405281815282820160200188101561045557600080fd5b610466826020830160208601610379565b8093505050509250925092565b60008251610485818460208701610379565b9190910192915050565b60805161048f6104a960003960006010015261048f6000f3fe608060405261000c61000e565b005b7f00000000000000000000000000000000000000000000000000000000000000006001600160a01b0316330361007b576000356001600160e01b03191663278f794360e11b14610071576040516334ad5dbb60e21b815260040160405180910390fd5b610079610083565b565b6100796100b2565b6000806100933660048184610312565b8101906100a09190610352565b915091506100ae82826100c2565b5050565b6100796100bd61011d565b610155565b6100cb82610179565b6040516001600160a01b038316907fbc7cd75a20ee27fd9adebab32041f755214dbc6bffa90cc0225b39da2e5c2d3b90600090a28051156101155761011082826101f5565b505050565b6100ae61026b565b60006101507f360894a13ba1a3210667c828492db98dca3e2076cc3735a920a3ca505d382bbc546001600160a01b031690565b905090565b3660008037600080366000845af43d6000803e808015610174573d6000f35b3d6000fd5b806001600160a01b03163b6000036101b457604051634c9c8ce360e01b81526001600160a01b03821660048201526024015b60405180910390fd5b7f360894a13ba1a3210667c828492db98dca3e2076cc3735a920a3ca505d382bbc80546001600160a01b0319166001600160a01b0392909216919091179055565b6060600080846001600160a01b031684604051610212919061042a565b600060405180830381855af49150503d806000811461024d576040519150601f19603f3d011682016040523d82523d6000602084013e610252565b606091505b509150915061026285838361028a565b95945050505050565b34156100795760405163b398979f60e01b815260040160405180910390fd5b60608261029f5761029a826102e9565b6102e2565b81511580156102b657506001600160a01b0384163b155b156102df57604051639996b31560e01b81526001600160a01b03851660048201526024016101ab565b50805b9392505050565b8051156102f95780518082602001fd5b60405163d6bda27560e01b815260040160405180910390fd5b6000808585111561032257600080fd5b8386111561032f57600080fd5b5050820193919092039150565b634e487b7160e01b600052604160045260246000fd5b6000806040838503121561036557600080fd5b82356001600160a01b038116811461037c57600080fd5b9150602083013567ffffffffffffffff81111561039857600080fd5b8301601f810185136103a957600080fd5b803567ffffffffffffffff8111156103c3576103c361033c565b604051601f8201601f19908116603f0116810167ffffffffffffffff811182821017156103f2576103f261033c565b60405281815282820160200187101561040a57600080fd5b816020840160208301376000602083830101528093505050509250929050565b6000825160005b8181101561044b5760208186018101518583015201610431565b50600092019182525091905056fea2646970667358221220cfb98d40834e9ca992d0ded409dd88fea814baa5d00d9fc594afcdd0ba17868864736f6c634300081e0033608060405234801561001057600080fd5b5060405161052c38038061052c83398101604081905261002f916100be565b806001600160a01b03811661005e57604051631e4fbdf760e01b81526000600482015260240160405180910390fd5b6100678161006e565b50506100ee565b600080546001600160a01b038381166001600160a01b0319831681178455604051919092169283917f8be0079c531659141344cd1fd0a4f28419497f9722a3daafe3b4186f6b6457e09190a35050565b6000602082840312156100d057600080fd5b81516001600160a01b03811681146100e757600080fd5b9392505050565b61042f806100fd6000396000f3fe60806040526004361061004a5760003560e01c8063715018a61461004f5780638da5cb5b146100665780639623609d14610093578063ad3cb1cc146100a6578063f2fde38b146100e4575b600080fd5b34801561005b57600080fd5b50610064610104565b005b34801561007257600080fd5b506000546040516001600160a01b0390911681526020015b60405180910390f35b6100646100a1366004610272565b610118565b3480156100b257600080fd5b506100d7604051806040016040528060058152602001640352e302e360dc1b81525081565b60405161008a9190610396565b3480156100f057600080fd5b506100646100ff3660046103b0565b610187565b61010c6101ca565b61011660006101f7565b565b6101206101ca565b60405163278f794360e11b81526001600160a01b03841690634f1ef28690349061015090869086906004016103cd565b6000604051808303818588803b15801561016957600080fd5b505af115801561017d573d6000803e3d6000fd5b5050505050505050565b61018f6101ca565b6001600160a01b0381166101be57604051631e4fbdf760e01b8152600060048201526024015b60405180910390fd5b6101c7816101f7565b50565b6000546001600160a01b031633146101165760405163118cdaa760e01b81523360048201526024016101b5565b600080546001600160a01b038381166001600160a01b0319831681178455604051919092169283917f8be0079c531659141344cd1fd0a4f28419497f9722a3daafe3b4186f6b6457e09190a35050565b6001600160a01b03811681146101c757600080fd5b634e487b7160e01b600052604160045260246000fd5b60008060006060848603121561028757600080fd5b833561029281610247565b925060208401356102a281610247565b9150604084013567ffffffffffffffff8111156102be57600080fd5b8401601f810186136102cf57600080fd5b803567ffffffffffffffff8111156102e9576102e961025c565b604051601f8201601f19908116603f0116810167ffffffffffffffff811182821017156103185761031861025c565b60405281815282820160200188101561033057600080fd5b816020840160208301376000602083830101528093505050509250925092565b6000815180845260005b818110156103765760208185018101518683018201520161035a565b506000602082860101526020601f19601f83011685010191505092915050565b6020815260006103a96020830184610350565b9392505050565b6000602082840312156103c257600080fd5b81356103a981610247565b6001600160a01b03831681526040602082018190526000906103f190830184610350565b94935050505056fea26469706673582212202754da24585784be5640e17ce95f3ed668beca572886b18baba4a404d9f03c4264736f6c634300081e0033b53127684a568b3173ae13b9f8a6016e243e63b6e8ee1178d6a717850b5d6103a264697066735822122099e2d639bdc316eae1a88e8a01230980eb3a9902d435607e7a199dfe641b45ae64736f6c634300081e00336080604052348015600f57600080fd5b50611aca8061001f6000396000f3fe608060405234801561001057600080fd5b506004361061014d5760003560e01c806370a08231116100c3578063a22cb4651161007c578063a22cb46514610292578063b88d4fde146102a5578063c87b56dd146102b8578063e30c3978146102cb578063e985e9c5146102d3578063f2fde38b146102e657600080fd5b806370a082311461023e578063715018a61461025f57806379ba5097146102675780638da5cb5b1461026f578063931688cb1461027757806395d89b411461028a57600080fd5b8063353089191161011557806335308919146101e25780633c130d90146101ea57806342842e0e146101f25780635c6d8da1146102055780636352211e14610218578063695850fb1461022b57600080fd5b806301ffc9a71461015257806306fdde031461017a578063081812fc1461018f578063095ea7b3146101ba57806323b872dd146101cf575b600080fd5b61016561016036600461143e565b6102f9565b60405190151581526020015b60405180910390f35b61018261034b565b60405161017191906114ab565b6101a261019d3660046114be565b6103ef565b6040516001600160a01b039091168152602001610171565b6101cd6101c83660046114f3565b610404565b005b6101cd6101dd36600461151d565b610413565b6101826104a3565b6101826104d9565b6101cd61020036600461151d565b610510565b6101cd61021336600461160a565b610530565b6101a26102263660046114be565b61069c565b6101cd6102393660046116af565b6106a7565b61025161024c3660046116e4565b6107ad565b604051908152602001610171565b6101cd610809565b6101cd61081d565b6101a2610865565b6101cd6102853660046116af565b61089a565b61018261090c565b6101cd6102a03660046116ff565b61094b565b6101cd6102b336600461173b565b610956565b6101826102c63660046114be565b61096e565b6101a26109e3565b6101656102e13660046117b7565b610a0c565b6101cd6102f43660046116e4565b610a59565b60006001600160e01b031982166380ac58cd60e01b148061032a57506001600160e01b03198216635b5e139f60e01b145b8061034557506301ffc9a760e01b6001600160e01b03198316145b92915050565b600080516020611a75833981519152805460609190819061036b906117ea565b80601f0160208091040260200160405190810160405280929190818152602001828054610397906117ea565b80156103e45780601f106103b9576101008083540402835291602001916103e4565b820191906000526020600020905b8154815290600101906020018083116103c757829003601f168201915b505050505091505090565b60006103fa82610ade565b5061034582610b16565b61040f828233610b50565b5050565b6001600160a01b03821661044257604051633250574960e11b8152600060048201526024015b60405180910390fd5b600061044f838333610b5d565b9050836001600160a01b0316816001600160a01b03161461049d576040516364283d7b60e01b81526001600160a01b0380861660048301526024820184905282166044820152606401610439565b50505050565b336000908152600460205260409020546060906104bf81610ade565b506000818152600260205260409020805461036b906117ea565b606060006104e56104a3565b90506001816040516020016104fb929190611896565b60405160208183030381529060405291505090565b61052b83838360405180602001604052806000815250610956565b505050565b600061053a610c67565b805490915060ff600160401b820416159067ffffffffffffffff166000811580156105625750825b905060008267ffffffffffffffff16600114801561057f5750303b155b90508115801561058d575080155b156105ab5760405163f92ee8a960e01b815260040160405180910390fd5b845467ffffffffffffffff1916600117855583156105d557845460ff60401b1916600160401b1785555b6001600160a01b03861661062b5760405162461bcd60e51b815260206004820152601c60248201527f4f776e65722063616e6e6f74206265207a65726f2061646472657373000000006044820152606401610439565b6106358989610c90565b61063e86610ca2565b600161064a8882611902565b50831561069157845460ff60401b19168555604051600181527fc7f505b2f371ae2175ee4913f4499e1f2633a7b5936321eed1cdaeb6115181d29060200160405180910390a15b505050505050505050565b600061034582610ade565b3360009081526003602052604090205460ff16156107075760405162461bcd60e51b815260206004820152601760248201527f557365722063616e206f6e6c79206d696e74204f6e63650000000000000000006044820152606401610439565b600080548180610716836119c1565b9091555060008181526002602052604090209091506107358382611902565b50336000818152600360209081526040808320805460ff19166001179055600490915290208290556107679082610cb3565b80336001600160a01b03167fde5d6fd45e32fffb472bcbaeedf6a2e3944633c9701eec7d99adfa07ad6104c1846040516107a191906114ab565b60405180910390a35050565b6000600080516020611a758339815191526001600160a01b0383166107e8576040516322718ad960e21b815260006004820152602401610439565b6001600160a01b039092166000908152600390920160205250604090205490565b610811610ccd565b61081b6000610cff565b565b33806108276109e3565b6001600160a01b0316146108595760405163118cdaa760e01b81526001600160a01b0382166004820152602401610439565b61086281610cff565b50565b6000807f9016d09d72d40fdae2fd8ceac6b6234c7706214fd39c1cd1e609a0528c1993005b546001600160a01b031692915050565b6108a2610ccd565b805160208201206040516108b8906001906119e8565b6040518091039020146108625760016108d18282611902565b507f6741b2fc379fad678116fe3d4d4b9a1a184ab53ba36b86ad0fa66340b1ab41ad8160405161090191906114ab565b60405180910390a150565b7f80bb2b638cc20bc4d0a60d66940f3ab4a00c1d7b313497ca82fb0b4ab00793018054606091600080516020611a758339815191529161036b906117ea565b61040f338383610d37565b610961848484610413565b61049d3385858585610de8565b606061097982610ade565b50600061099160408051602081019091526000815290565b905060008151116109b157604051806020016040528060008152506109dc565b806109bb84610f13565b6040516020016109cc9291906119f4565b6040516020818303038152906040525b9392505050565b6000807f237e158222e3e6968b72b9db0d8043aacf074ad9f650f0d1606b4d82ee432c0061088a565b6001600160a01b0391821660009081527f80bb2b638cc20bc4d0a60d66940f3ab4a00c1d7b313497ca82fb0b4ab00793056020908152604080832093909416825291909152205460ff1690565b610a61610ccd565b7f237e158222e3e6968b72b9db0d8043aacf074ad9f650f0d1606b4d82ee432c0080546001600160a01b0319166001600160a01b0383169081178255610aa5610865565b6001600160a01b03167f38d16b8cac22d99fc7c124b9cd0de2d3fa1faef420bfe791d8c362d765e2270060405160405180910390a35050565b600080610aea83610fa6565b90506001600160a01b03811661034557604051637e27328960e01b815260048101849052602401610439565b60009081527f80bb2b638cc20bc4d0a60d66940f3ab4a00c1d7b313497ca82fb0b4ab007930460205260409020546001600160a01b031690565b61052b8383836001610fe0565b6000600080516020611a7583398151915281610b7885610fa6565b90506001600160a01b03841615610b9457610b948185876110f6565b6001600160a01b03811615610bd457610bb1600086600080610fe0565b6001600160a01b0381166000908152600383016020526040902080546000190190555b6001600160a01b03861615610c05576001600160a01b03861660009081526003830160205260409020805460010190555b600085815260028301602052604080822080546001600160a01b0319166001600160a01b038a811691821790925591518893918516917fddf252ad1be2c89b69c2b068fc378daa952ba7f163c4a11628f55a4df523b3ef91a495945050505050565b6000807ff0c57e16840df040f15088dc2f81fe391c3923bec73e23a9662efc9c229c6a00610345565b610c9861115a565b61040f828261117f565b610caa61115a565b610862816111b0565b61040f8282604051806020016040528060008152506111e2565b33610cd6610865565b6001600160a01b03161461081b5760405163118cdaa760e01b8152336004820152602401610439565b7f237e158222e3e6968b72b9db0d8043aacf074ad9f650f0d1606b4d82ee432c0080546001600160a01b031916815561040f826111fa565b600080516020611a758339815191526001600160a01b038316610d7857604051630b61174360e31b81526001600160a01b0384166004820152602401610439565b6001600160a01b038481166000818152600584016020908152604080832094881680845294825291829020805460ff191687151590811790915591519182527f17307eab39ab6107e8899845ad3d59bd9653f200f220920489ca2b5937696c31910160405180910390a350505050565b6001600160a01b0383163b15610f0c57604051630a85bd0160e11b81526001600160a01b0384169063150b7a0290610e2a908890889087908790600401611a1a565b6020604051808303816000875af1925050508015610e65575060408051601f3d908101601f19168201909252610e6291810190611a57565b60015b610ece573d808015610e93576040519150601f19603f3d011682016040523d82523d6000602084013e610e98565b606091505b508051600003610ec657604051633250574960e11b81526001600160a01b0385166004820152602401610439565b805181602001fd5b6001600160e01b03198116630a85bd0160e11b14610f0a57604051633250574960e11b81526001600160a01b0385166004820152602401610439565b505b5050505050565b60606000610f208361126b565b600101905060008167ffffffffffffffff811115610f4057610f4061155a565b6040519080825280601f01601f191660200182016040528015610f6a576020820181803683370190505b5090508181016020015b600019016f181899199a1a9b1b9c1cb0b131b232b360811b600a86061a8153600a8504945084610f7457509392505050565b60009081527f80bb2b638cc20bc4d0a60d66940f3ab4a00c1d7b313497ca82fb0b4ab007930260205260409020546001600160a01b031690565b600080516020611a75833981519152818061100357506001600160a01b03831615155b156110c557600061101385610ade565b90506001600160a01b0384161580159061103f5750836001600160a01b0316816001600160a01b031614155b801561105257506110508185610a0c565b155b1561107b5760405163a9fbf51f60e01b81526001600160a01b0385166004820152602401610439565b82156110c35784866001600160a01b0316826001600160a01b03167f8c5be1e5ebec7d5bd14f71427d1e84f3dd0314c0f7b2291e5b200ac8c7c3b92560405160405180910390a45b505b600093845260040160205250506040902080546001600160a01b0319166001600160a01b0392909216919091179055565b611101838383611343565b61052b576001600160a01b03831661112f57604051637e27328960e01b815260048101829052602401610439565b60405163177e802f60e01b81526001600160a01b038316600482015260248101829052604401610439565b6111626113a9565b61081b57604051631afcd79f60e31b815260040160405180910390fd5b61118761115a565b600080516020611a75833981519152806111a18482611902565b506001810161049d8382611902565b6111b861115a565b6001600160a01b03811661085957604051631e4fbdf760e01b815260006004820152602401610439565b6111ec83836113c3565b61052b336000858585610de8565b7f9016d09d72d40fdae2fd8ceac6b6234c7706214fd39c1cd1e609a0528c19930080546001600160a01b031981166001600160a01b03848116918217845560405192169182907f8be0079c531659141344cd1fd0a4f28419497f9722a3daafe3b4186f6b6457e090600090a3505050565b60008072184f03e93ff9f4daa797ed6e38ed64bf6a1f0160401b83106112aa5772184f03e93ff9f4daa797ed6e38ed64bf6a1f0160401b830492506040015b6d04ee2d6d415b85acef810000000083106112d6576d04ee2d6d415b85acef8100000000830492506020015b662386f26fc1000083106112f457662386f26fc10000830492506010015b6305f5e100831061130c576305f5e100830492506008015b612710831061132057612710830492506004015b60648310611332576064830492506002015b600a83106103455760010192915050565b60006001600160a01b038316158015906113a15750826001600160a01b0316846001600160a01b0316148061137d575061137d8484610a0c565b806113a15750826001600160a01b031661139683610b16565b6001600160a01b0316145b949350505050565b60006113b3610c67565b54600160401b900460ff16919050565b6001600160a01b0382166113ed57604051633250574960e11b815260006004820152602401610439565b60006113fb83836000610b5d565b90506001600160a01b0381161561052b576040516339e3563760e11b815260006004820152602401610439565b6001600160e01b03198116811461086257600080fd5b60006020828403121561145057600080fd5b81356109dc81611428565b60005b8381101561147657818101518382015260200161145e565b50506000910152565b6000815180845261149781602086016020860161145b565b601f01601f19169290920160200192915050565b6020815260006109dc602083018461147f565b6000602082840312156114d057600080fd5b5035919050565b80356001600160a01b03811681146114ee57600080fd5b919050565b6000806040838503121561150657600080fd5b61150f836114d7565b946020939093013593505050565b60008060006060848603121561153257600080fd5b61153b846114d7565b9250611549602085016114d7565b929592945050506040919091013590565b634e487b7160e01b600052604160045260246000fd5b60008067ffffffffffffffff84111561158b5761158b61155a565b50604051601f19601f85018116603f0116810181811067ffffffffffffffff821117156115ba576115ba61155a565b6040528381529050808284018510156115d257600080fd5b83836020830137600060208583010152509392505050565b600082601f8301126115fb57600080fd5b6109dc83833560208501611570565b6000806000806080858703121561162057600080fd5b843567ffffffffffffffff81111561163757600080fd5b611643878288016115ea565b945050602085013567ffffffffffffffff81111561166057600080fd5b61166c878288016115ea565b935050604085013567ffffffffffffffff81111561168957600080fd5b611695878288016115ea565b9250506116a4606086016114d7565b905092959194509250565b6000602082840312156116c157600080fd5b813567ffffffffffffffff8111156116d857600080fd5b6113a1848285016115ea565b6000602082840312156116f657600080fd5b6109dc826114d7565b6000806040838503121561171257600080fd5b61171b836114d7565b91506020830135801515811461173057600080fd5b809150509250929050565b6000806000806080858703121561175157600080fd5b61175a856114d7565b9350611768602086016114d7565b925060408501359150606085013567ffffffffffffffff81111561178b57600080fd5b8501601f8101871361179c57600080fd5b6117ab87823560208401611570565b91505092959194509250565b600080604083850312156117ca57600080fd5b6117d3836114d7565b91506117e1602084016114d7565b90509250929050565b600181811c908216806117fe57607f821691505b60208210810361181e57634e487b7160e01b600052602260045260246000fd5b50919050565b60008154611831816117ea565b600182168015611848576001811461185d5761188d565b60ff198316865281151582028601935061188d565b84600052602060002060005b8381101561188557815488820152600190910190602001611869565b505081860193505b50505092915050565b60006118a28285611824565b83516118b281836020880161145b565b01949350505050565b601f82111561052b57806000526020600020601f840160051c810160208510156118e25750805b601f840160051c820191505b81811015610f0c57600081556001016118ee565b815167ffffffffffffffff81111561191c5761191c61155a565b6119308161192a84546117ea565b846118bb565b6020601f821160018114611964576000831561194c5750848201515b600019600385901b1c1916600184901b178455610f0c565b600084815260208120601f198516915b828110156119945787850151825560209485019460019092019101611974565b50848210156119b25786840151600019600387901b60f8161c191681555b50505050600190811b01905550565b6000600182016119e157634e487b7160e01b600052601160045260246000fd5b5060010190565b60006109dc8284611824565b60008351611a0681846020880161145b565b8351908301906118b281836020880161145b565b6001600160a01b0385811682528416602082015260408101839052608060608201819052600090611a4d9083018461147f565b9695505050505050565b600060208284031215611a6957600080fd5b81516109dc8161142856fe80bb2b638cc20bc4d0a60d66940f3ab4a00c1d7b313497ca82fb0b4ab0079300a26469706673582212204822c9c49b2dfcdd627160ad19730def6256149b988878e9f26f50fd6d8058be64736f6c634300081e0033608060405234801561001057600080fd5b5060405161052c38038061052c83398101604081905261002f916100be565b806001600160a01b03811661005e57604051631e4fbdf760e01b81526000600482015260240160405180910390fd5b6100678161006e565b50506100ee565b600080546001600160a01b038381166001600160a01b0319831681178455604051919092169283917f8be0079c531659141344cd1fd0a4f28419497f9722a3daafe3b4186f6b6457e09190a35050565b6000602082840312156100d057600080fd5b81516001600160a01b03811681146100e757600080fd5b9392505050565b61042f806100fd6000396000f3fe60806040526004361061004a5760003560e01c8063715018a61461004f5780638da5cb5b146100665780639623609d14610093578063ad3cb1cc146100a6578063f2fde38b146100e4575b600080fd5b34801561005b57600080fd5b50610064610104565b005b34801561007257600080fd5b506000546040516001600160a01b0390911681526020015b60405180910390f35b6100646100a1366004610272565b610118565b3480156100b257600080fd5b506100d7604051806040016040528060058152602001640352e302e360dc1b81525081565b60405161008a9190610396565b3480156100f057600080fd5b506100646100ff3660046103b0565b610187565b61010c6101ca565b61011660006101f7565b565b6101206101ca565b60405163278f794360e11b81526001600160a01b03841690634f1ef28690349061015090869086906004016103cd565b6000604051808303818588803b15801561016957600080fd5b505af115801561017d573d6000803e3d6000fd5b5050505050505050565b61018f6101ca565b6001600160a01b0381166101be57604051631e4fbdf760e01b8152600060048201526024015b60405180910390fd5b6101c7816101f7565b50565b6000546001600160a01b031633146101165760405163118cdaa760e01b81523360048201526024016101b5565b600080546001600160a01b038381166001600160a01b0319831681178455604051919092169283917f8be0079c531659141344cd1fd0a4f28419497f9722a3daafe3b4186f6b6457e09190a35050565b6001600160a01b03811681146101c757600080fd5b634e487b7160e01b600052604160045260246000fd5b60008060006060848603121561028757600080fd5b833561029281610247565b925060208401356102a281610247565b9150604084013567ffffffffffffffff8111156102be57600080fd5b8401601f810186136102cf57600080fd5b803567ffffffffffffffff8111156102e9576102e961025c565b604051601f8201601f19908116603f0116810167ffffffffffffffff811182821017156103185761031861025c565b60405281815282820160200188101561033057600080fd5b816020840160208301376000602083830101528093505050509250925092565b6000815180845260005b818110156103765760208185018101518683018201520161035a565b506000602082860101526020601f19601f83011685010191505092915050565b6020815260006103a96020830184610350565b9392505050565b6000602082840312156103c257600080fd5b81356103a981610247565b6001600160a01b03831681526040602082018190526000906103f190830184610350565b94935050505056fea26469706673582212202754da24585784be5640e17ce95f3ed668beca572886b18baba4a404d9f03c4264736f6c634300081e0033",
  "linkReferences": {},
  "deployedLinkReferences": {}
}