{
  "_format": "hh-sol-artifact-1",
  "contractName": "CertificationNFT",
  "sourceName": "contracts/certificationNFT.sol",
  "abi": [
    {
      "inputs": [
        {
          "internalType": "string",
          "name": "name",
          "type": "string"
        },
        {
          "internalType": "string",
          "name": "symbol",
          "type": "string"
        },
        {
          "internalType": "string",
          "name": "baseURI",
          "type": "string"
        }
      ],
      "stateMutability": "nonpayable",
      "type": "constructor"
    },
    {
      "inputs": [
        {
          "internalType": "address",
          "name": "sender",
          "type": "address"
        },
        {
          "internalType": "uint256",
          "name": "tokenId",
          "type": "uint256"
        },
        {
          "internalType": "address",
          "name": "owner",
          "type": "address"
        }
      ],
      "name": "ERC721IncorrectOwner",
      "type": "error"
    },
    {
      "inputs": [
        {
          "internalType": "address",
          "name": "operator",
          "type": "address"
        },
        {
          "internalType": "uint256",
          "name": "tokenId",
          "type": "uint256"
        }
      ],
      "name": "ERC721InsufficientApproval",
      "type": "error"
    },
    {
      "inputs": [
        {
          "internalType": "address",
          "name": "approver",
          "type": "address"
        }
      ],
      "name": "ERC721InvalidApprover",
      "type": "error"
    },
    {
      "inputs": [
        {
          "internalType": "address",
          "name": "operator",
          "type": "address"
        }
      ],
      "name": "ERC721InvalidOperator",
      "type": "error"
    },
    {
      "inputs": [
        {
          "internalType": "address",
          "name": "owner",
          "type": "address"
        }
      ],
      "name": "ERC721InvalidOwner",
      "type": "error"
    },
    {
      "inputs": [
        {
          "internalType": "address",
          "name": "receiver",
          "type": "address"
        }
      ],
      "name": "ERC721InvalidReceiver",
      "type": "error"
    },
    {
      "inputs": [
        {
          "internalType": "address",
          "name": "sender",
          "type": "address"
        }
      ],
      "name": "ERC721InvalidSender",
      "type": "error"
    },
    {
      "inputs": [
        {
          "internalType": "uint256",
          "name": "tokenId",
          "type": "uint256"
        }
      ],
      "name": "ERC721NonexistentToken",
      "type": "error"
    },
    {
      "inputs": [
        {
          "internalType": "address",
          "name": "owner",
          "type": "address"
        }
      ],
      "name": "OwnableInvalidOwner",
      "type": "error"
    },
    {
      "inputs": [
        {
          "internalType": "address",
          "name": "account",
          "type": "address"
        }
      ],
      "name": "OwnableUnauthorizedAccount",
      "type": "error"
    },
    {
      "anonymous": false,
      "inputs": [
        {
          "indexed": true,
          "internalType": "address",
          "name": "owner",
          "type": "address"
        },
        {
          "indexed": true,
          "internalType": "address",
          "name": "approved",
          "type": "address"
        },
        {
          "indexed": true,
          "internalType": "uint256",
          "name": "tokenId",
          "type": "uint256"
        }
      ],
      "name": "Approval",
      "type": "event"
    },
    {
      "anonymous": false,
      "inputs": [
        {
          "indexed": true,
          "internalType": "address",
          "name": "owner",
          "type": "address"
        },
        {
          "indexed": true,
          "internalType": "address",
          "name": "operator",
          "type": "address"
        },
        {
          "indexed": false,
          "internalType": "bool",
          "name": "approved",
          "type": "bool"
        }
      ],
      "name": "ApprovalForAll",
      "type": "event"
    },
    {
      "anonymous": false,
      "inputs": [
        {
          "indexed": true,
          "internalType": "address",
          "name": "previousOwner",
          "type": "address"
        },
        {
          "indexed": true,
          "internalType": "address",
          "name": "newOwner",
          "type": "address"
        }
      ],
      "name": "OwnershipTransferred",
      "type": "event"
    },
    {
      "anonymous": false,
      "inputs": [
        {
          "indexed": true,
          "internalType": "address",
          "name": "from",
          "type": "address"
        },
        {
          "indexed": true,
          "internalType": "address",
          "name": "to",
          "type": "address"
        },
        {
          "indexed": true,
          "internalType": "uint256",
          "name": "tokenId",
          "type": "uint256"
        }
      ],
      "name": "Transfer",
      "type": "event"
    },
    {
      "inputs": [
        {
          "internalType": "address",
          "name": "to",
          "type": "address"
        },
        {
          "internalType": "uint256",
          "name": "tokenId",
          "type": "uint256"
        }
      ],
      "name": "approve",
      "outputs": [],
      "stateMutability": "nonpayable",
      "type": "function"
    },
    {
      "inputs": [
        {
          "internalType": "address",
          "name": "owner",
          "type": "address"
        }
      ],
      "name": "balanceOf",
      "outputs": [
        {
          "internalType": "uint256",
          "name": "",
          "type": "uint256"
        }
      ],
      "stateMutability": "view",
      "type": "function"
    },
    {
      "inputs": [
        {
          "internalType": "uint256",
          "name": "tokenId",
          "type": "uint256"
        }
      ],
      "name": "getApproved",
      "outputs": [
        {
          "internalType": "address",
          "name": "",
          "type": "address"
        }
      ],
      "stateMutability": "view",
      "type": "function"
    },
    {
      "inputs": [
        {
          "internalType": "uint256",
          "name": "tokenId",
          "type": "uint256"
        }
      ],
      "name": "getCertificateDetails",
      "outputs": [
        {
          "internalType": "string",
          "name": "",
          "type": "string"
        }
      ],
      "stateMutability": "view",
      "type": "function"
    },
    {
      "inputs": [
        {
          "internalType": "address",
          "name": "owner",
          "type": "address"
        },
        {
          "internalType": "address",
          "name": "operator",
          "type": "address"
        }
      ],
      "name": "isApprovedForAll",
      "outputs": [
        {
          "internalType": "bool",
          "name": "",
          "type": "bool"
        }
      ],
      "stateMutability": "view",
      "type": "function"
    },
    {
      "inputs": [],
      "name": "name",
      "outputs": [
        {
          "internalType": "string",
          "name": "",
          "type": "string"
        }
      ],
      "stateMutability": "view",
      "type": "function"
    },
    {
      "inputs": [],
      "name": "owner",
      "outputs": [
        {
          "internalType": "address",
          "name": "",
          "type": "address"
        }
      ],
      "stateMutability": "view",
      "type": "function"
    },
    {
      "inputs": [
        {
          "internalType": "uint256",
          "name": "tokenId",
          "type": "uint256"
        }
      ],
      "name": "ownerOf",
      "outputs": [
        {
          "internalType": "address",
          "name": "",
          "type": "address"
        }
      ],
      "stateMutability": "view",
      "type": "function"
    },
    {
      "inputs": [],
      "name": "renounceOwnership",
      "outputs": [],
      "stateMutability": "nonpayable",
      "type": "function"
    },
    {
      "inputs": [
        {
          "internalType": "address",
          "name": "to",
          "type": "address"
        },
        {
          "internalType": "string",
          "name": "certificateData",
          "type": "string"
        }
      ],
      "name": "safeMint",
      "outputs": [],
      "stateMutability": "nonpayable",
      "type": "function"
    },
    {
      "inputs": [
        {
          "internalType": "address",
          "name": "from",
          "type": "address"
        },
        {
          "internalType": "address",
          "name": "to",
          "type": "address"
        },
        {
          "internalType": "uint256",
          "name": "tokenId",
          "type": "uint256"
        }
      ],
      "name": "safeTransferFrom",
      "outputs": [],
      "stateMutability": "nonpayable",
      "type": "function"
    },
    {
      "inputs": [
        {
          "internalType": "address",
          "name": "from",
          "type": "address"
        },
        {
          "internalType": "address",
          "name": "to",
          "type": "address"
        },
        {
          "internalType": "uint256",
          "name": "tokenId",
          "type": "uint256"
        },
        {
          "internalType": "bytes",
          "name": "data",
          "type": "bytes"
        }
      ],
      "name": "safeTransferFrom",
      "outputs": [],
      "stateMutability": "nonpayable",
      "type": "function"
    },
    {
      "inputs": [
        {
          "internalType": "address",
          "name": "operator",
          "type": "address"
        },
        {
          "internalType": "bool",
          "name": "approved",
          "type": "bool"
        }
      ],
      "name": "setApprovalForAll",
      "outputs": [],
      "stateMutability": "nonpayable",
      "type": "function"
    },
    {
      "inputs": [
        {
          "internalType": "bytes4",
          "name": "interfaceId",
          "type": "bytes4"
        }
      ],
      "name": "supportsInterface",
      "outputs": [
        {
          "internalType": "bool",
          "name": "",
          "type": "bool"
        }
      ],
      "stateMutability": "view",
      "type": "function"
    },
    {
      "inputs": [],
      "name": "symbol",
      "outputs": [
        {
          "internalType": "string",
          "name": "",
          "type": "string"
        }
      ],
      "stateMutability": "view",
      "type": "function"
    },
    {
      "inputs": [
        {
          "internalType": "uint256",
          "name": "tokenId",
          "type": "uint256"
        }
      ],
      "name": "tokenURI",
      "outputs": [
        {
          "internalType": "string",
          "name": "",
          "type": "string"
        }
      ],
      "stateMutability": "view",
      "type": "function"
    },
    {
      "inputs": [
        {
          "internalType": "address",
          "name": "from",
          "type": "address"
        },
        {
          "internalType": "address",
          "name": "to",
          "type": "address"
        },
        {
          "internalType": "uint256",
          "name": "tokenId",
          "type": "uint256"
        }
      ],
      "name": "transferFrom",
      "outputs": [],
      "stateMutability": "nonpayable",
      "type": "function"
    },
    {
      "inputs": [
        {
          "internalType": "address",
          "name": "newOwner",
          "type": "address"
        }
      ],
      "name": "transferOwnership",
      "outputs": [],
      "stateMutability": "nonpayable",
      "type": "function"
    },
    {
      "inputs": [
        {
          "internalType": "string",
          "name": "newBaseURI",
          "type": "string"
        }
      ],
      "name": "updateBaseURI",
      "outputs": [],
      "stateMutability": "nonpayable",
      "type": "function"
    }
  ],
  "bytecode": "0x60806040523480156200001157600080fd5b50604051620017c6380380620017c68339810160408190526200003491620001c1565b3383836000620000458382620002e1565b506001620000548282620002e1565b5050506001600160a01b0381166200008657604051631e4fbdf760e01b81526000600482015260240160405180910390fd5b6200009181620000aa565b506008620000a08282620002e1565b50505050620003ad565b600680546001600160a01b038381166001600160a01b0319831681179093556040519116919082907f8be0079c531659141344cd1fd0a4f28419497f9722a3daafe3b4186f6b6457e090600090a35050565b634e487b7160e01b600052604160045260246000fd5b600082601f8301126200012457600080fd5b81516001600160401b0380821115620001415762000141620000fc565b604051601f8301601f19908116603f011681019082821181831017156200016c576200016c620000fc565b816040528381526020925086838588010111156200018957600080fd5b600091505b83821015620001ad57858201830151818301840152908201906200018e565b600093810190920192909252949350505050565b600080600060608486031215620001d757600080fd5b83516001600160401b0380821115620001ef57600080fd5b620001fd8783880162000112565b945060208601519150808211156200021457600080fd5b620002228783880162000112565b935060408601519150808211156200023957600080fd5b50620002488682870162000112565b9150509250925092565b600181811c908216806200026757607f821691505b6020821081036200028857634e487b7160e01b600052602260045260246000fd5b50919050565b601f821115620002dc57600081815260208120601f850160051c81016020861015620002b75750805b601f850160051c820191505b81811015620002d857828155600101620002c3565b5050505b505050565b81516001600160401b03811115620002fd57620002fd620000fc565b62000315816200030e845462000252565b846200028e565b602080601f8311600181146200034d5760008415620003345750858301515b600019600386901b1c1916600185901b178555620002d8565b600085815260208120601f198616915b828110156200037e578886015182559484019460019091019084016200035d565b50858210156200039d5787850151600019600388901b60f8161c191681555b5050505050600190811b01905550565b61140980620003bd6000396000f3fe608060405234801561001057600080fd5b50600436106101215760003560e01c80638da5cb5b116100ad578063b88d4fde11610071578063b88d4fde14610257578063c87b56dd1461026a578063d204c45e1461027d578063e985e9c514610290578063f2fde38b146102a357600080fd5b80638da5cb5b14610205578063931688cb1461021657806395d89b4114610229578063a22cb46514610231578063a901fe5e1461024457600080fd5b806323b872dd116100f457806323b872dd146101a357806342842e0e146101b65780636352211e146101c957806370a08231146101dc578063715018a6146101fd57600080fd5b806301ffc9a71461012657806306fdde031461014e578063081812fc14610163578063095ea7b31461018e575b600080fd5b610139610134366004610e34565b6102b6565b60405190151581526020015b60405180910390f35b610156610308565b6040516101459190610ea8565b610176610171366004610ebb565b61039a565b6040516001600160a01b039091168152602001610145565b6101a161019c366004610ef0565b6103c3565b005b6101a16101b1366004610f1a565b6103d2565b6101a16101c4366004610f1a565b610462565b6101766101d7366004610ebb565b610482565b6101ef6101ea366004610f56565b61048d565b604051908152602001610145565b6101a16104d5565b6006546001600160a01b0316610176565b6101a161022436600461101d565b6104e9565b6101566104fd565b6101a161023f366004611052565b61050c565b610156610252366004610ebb565b610517565b6101a161026536600461108e565b6105c1565b610156610278366004610ebb565b6105d9565b6101a161028b36600461110a565b610617565b61013961029e366004611158565b610658565b6101a16102b1366004610f56565b610686565b60006001600160e01b031982166380ac58cd60e01b14806102e757506001600160e01b03198216635b5e139f60e01b145b8061030257506301ffc9a760e01b6001600160e01b03198316145b92915050565b6060600080546103179061118b565b80601f01602080910402602001604051908101604052809291908181526020018280546103439061118b565b80156103905780601f1061036557610100808354040283529160200191610390565b820191906000526020600020905b81548152906001019060200180831161037357829003601f168201915b5050505050905090565b60006103a5826106c4565b506000828152600460205260409020546001600160a01b0316610302565b6103ce8282336106fd565b5050565b6001600160a01b03821661040157604051633250574960e11b8152600060048201526024015b60405180910390fd5b600061040e83833361070a565b9050836001600160a01b0316816001600160a01b03161461045c576040516364283d7b60e01b81526001600160a01b03808616600483015260248201849052821660448201526064016103f8565b50505050565b61047d838383604051806020016040528060008152506105c1565b505050565b6000610302826106c4565b60006001600160a01b0382166104b9576040516322718ad960e21b8152600060048201526024016103f8565b506001600160a01b031660009081526003602052604090205490565b6104dd610803565b6104e76000610830565b565b6104f1610803565b60086103ce828261120b565b6060600180546103179061118b565b6103ce338383610882565b6060610522826106c4565b506000828152600960205260409020805461053c9061118b565b80601f01602080910402602001604051908101604052809291908181526020018280546105689061118b565b80156105b55780601f1061058a576101008083540402835291602001916105b5565b820191906000526020600020905b81548152906001019060200180831161059857829003601f168201915b50505050509050919050565b6105cc8484846103d2565b61045c3385858585610921565b60606105e4826106c4565b5060086105f083610a4c565b6040516020016106019291906112cb565b6040516020818303038152906040529050919050565b61061f610803565b600780546000918261063083611352565b9190505590506106408382610adf565b600081815260096020526040902061045c838261120b565b6001600160a01b03918216600090815260056020908152604080832093909416825291909152205460ff1690565b61068e610803565b6001600160a01b0381166106b857604051631e4fbdf760e01b8152600060048201526024016103f8565b6106c181610830565b50565b6000818152600260205260408120546001600160a01b03168061030257604051637e27328960e01b8152600481018490526024016103f8565b61047d8383836001610af9565b6000828152600260205260408120546001600160a01b039081169083161561073757610737818486610bff565b6001600160a01b0381161561077557610754600085600080610af9565b6001600160a01b038116600090815260036020526040902080546000190190555b6001600160a01b038516156107a4576001600160a01b0385166000908152600360205260409020805460010190555b60008481526002602052604080822080546001600160a01b0319166001600160a01b0389811691821790925591518793918516917fddf252ad1be2c89b69c2b068fc378daa952ba7f163c4a11628f55a4df523b3ef91a4949350505050565b6006546001600160a01b031633146104e75760405163118cdaa760e01b81523360048201526024016103f8565b600680546001600160a01b038381166001600160a01b0319831681179093556040519116919082907f8be0079c531659141344cd1fd0a4f28419497f9722a3daafe3b4186f6b6457e090600090a35050565b6001600160a01b0382166108b457604051630b61174360e31b81526001600160a01b03831660048201526024016103f8565b6001600160a01b03838116600081815260056020908152604080832094871680845294825291829020805460ff191686151590811790915591519182527f17307eab39ab6107e8899845ad3d59bd9653f200f220920489ca2b5937696c31910160405180910390a3505050565b6001600160a01b0383163b15610a4557604051630a85bd0160e11b81526001600160a01b0384169063150b7a0290610963908890889087908790600401611379565b6020604051808303816000875af192505050801561099e575060408051601f3d908101601f1916820190925261099b918101906113b6565b60015b610a07573d8080156109cc576040519150601f19603f3d011682016040523d82523d6000602084013e6109d1565b606091505b5080516000036109ff57604051633250574960e11b81526001600160a01b03851660048201526024016103f8565b805181602001fd5b6001600160e01b03198116630a85bd0160e11b14610a4357604051633250574960e11b81526001600160a01b03851660048201526024016103f8565b505b5050505050565b60606000610a5983610c63565b600101905060008167ffffffffffffffff811115610a7957610a79610f71565b6040519080825280601f01601f191660200182016040528015610aa3576020820181803683370190505b5090508181016020015b600019016f181899199a1a9b1b9c1cb0b131b232b360811b600a86061a8153600a8504945084610aad57509392505050565b6103ce828260405180602001604052806000815250610d3b565b8080610b0d57506001600160a01b03821615155b15610bcf576000610b1d846106c4565b90506001600160a01b03831615801590610b495750826001600160a01b0316816001600160a01b031614155b8015610b5c5750610b5a8184610658565b155b15610b855760405163a9fbf51f60e01b81526001600160a01b03841660048201526024016103f8565b8115610bcd5783856001600160a01b0316826001600160a01b03167f8c5be1e5ebec7d5bd14f71427d1e84f3dd0314c0f7b2291e5b200ac8c7c3b92560405160405180910390a45b505b5050600090815260046020526040902080546001600160a01b0319166001600160a01b0392909216919091179055565b610c0a838383610d53565b61047d576001600160a01b038316610c3857604051637e27328960e01b8152600481018290526024016103f8565b60405163177e802f60e01b81526001600160a01b0383166004820152602481018290526044016103f8565b60008072184f03e93ff9f4daa797ed6e38ed64bf6a1f0160401b8310610ca25772184f03e93ff9f4daa797ed6e38ed64bf6a1f0160401b830492506040015b6d04ee2d6d415b85acef81000000008310610cce576d04ee2d6d415b85acef8100000000830492506020015b662386f26fc100008310610cec57662386f26fc10000830492506010015b6305f5e1008310610d04576305f5e100830492506008015b6127108310610d1857612710830492506004015b60648310610d2a576064830492506002015b600a83106103025760010192915050565b610d458383610db9565b61047d336000858585610921565b60006001600160a01b03831615801590610db15750826001600160a01b0316846001600160a01b03161480610d8d5750610d8d8484610658565b80610db157506000828152600460205260409020546001600160a01b038481169116145b949350505050565b6001600160a01b038216610de357604051633250574960e11b8152600060048201526024016103f8565b6000610df18383600061070a565b90506001600160a01b0381161561047d576040516339e3563760e11b8152600060048201526024016103f8565b6001600160e01b0319811681146106c157600080fd5b600060208284031215610e4657600080fd5b8135610e5181610e1e565b9392505050565b60005b83811015610e73578181015183820152602001610e5b565b50506000910152565b60008151808452610e94816020860160208601610e58565b601f01601f19169290920160200192915050565b602081526000610e516020830184610e7c565b600060208284031215610ecd57600080fd5b5035919050565b80356001600160a01b0381168114610eeb57600080fd5b919050565b60008060408385031215610f0357600080fd5b610f0c83610ed4565b946020939093013593505050565b600080600060608486031215610f2f57600080fd5b610f3884610ed4565b9250610f4660208501610ed4565b9150604084013590509250925092565b600060208284031215610f6857600080fd5b610e5182610ed4565b634e487b7160e01b600052604160045260246000fd5b600067ffffffffffffffff80841115610fa257610fa2610f71565b604051601f8501601f19908116603f01168101908282118183101715610fca57610fca610f71565b81604052809350858152868686011115610fe357600080fd5b858560208301376000602087830101525050509392505050565b600082601f83011261100e57600080fd5b610e5183833560208501610f87565b60006020828403121561102f57600080fd5b813567ffffffffffffffff81111561104657600080fd5b610db184828501610ffd565b6000806040838503121561106557600080fd5b61106e83610ed4565b91506020830135801515811461108357600080fd5b809150509250929050565b600080600080608085870312156110a457600080fd5b6110ad85610ed4565b93506110bb60208601610ed4565b925060408501359150606085013567ffffffffffffffff8111156110de57600080fd5b8501601f810187136110ef57600080fd5b6110fe87823560208401610f87565b91505092959194509250565b6000806040838503121561111d57600080fd5b61112683610ed4565b9150602083013567ffffffffffffffff81111561114257600080fd5b61114e85828601610ffd565b9150509250929050565b6000806040838503121561116b57600080fd5b61117483610ed4565b915061118260208401610ed4565b90509250929050565b600181811c9082168061119f57607f821691505b6020821081036111bf57634e487b7160e01b600052602260045260246000fd5b50919050565b601f82111561047d57600081815260208120601f850160051c810160208610156111ec5750805b601f850160051c820191505b81811015610a43578281556001016111f8565b815167ffffffffffffffff81111561122557611225610f71565b61123981611233845461118b565b846111c5565b602080601f83116001811461126e57600084156112565750858301515b600019600386901b1c1916600185901b178555610a43565b600085815260208120601f198616915b8281101561129d5788860151825594840194600190910190840161127e565b50858210156112bb5787850151600019600388901b60f8161c191681555b5050505050600190811b01905550565b60008084546112d98161118b565b600182811680156112f1576001811461130657611335565b60ff1984168752821515830287019450611335565b8860005260208060002060005b8581101561132c5781548a820152908401908201611313565b50505082870194505b505050508351611349818360208801610e58565b01949350505050565b60006001820161137257634e487b7160e01b600052601160045260246000fd5b5060010190565b6001600160a01b03858116825284166020820152604081018390526080606082018190526000906113ac90830184610e7c565b9695505050505050565b6000602082840312156113c857600080fd5b8151610e5181610e1e56fea2646970667358221220a8aa064400a6b642949726169842f7a8295c8fcc9e81153cb8cf4f312333b61464736f6c63430008140033",
  "linkReferences": {},
  "deployedLinkReferences": {}
}