{
  "_format": "hh-sol-artifact-1",
  "contractName": "CertificationNFT",
  "sourceName": "contracts/certificationNFT.sol",
  "abi": [
    {
      "inputs": [
        {
          "internalType": "address",
          "name": "sender",
          "type": "address"
        },
        {
          "internalType": "uint256",
          "name": "tokenId",
          "type": "uint256"
        },
        {
          "internalType": "address",
          "name": "owner",
          "type": "address"
        }
      ],
      "name": "ERC721IncorrectOwner",
      "type": "error"
    },
    {
      "inputs": [
        {
          "internalType": "address",
          "name": "operator",
          "type": "address"
        },
        {
          "internalType": "uint256",
          "name": "tokenId",
          "type": "uint256"
        }
      ],
      "name": "ERC721InsufficientApproval",
      "type": "error"
    },
    {
      "inputs": [
        {
          "internalType": "address",
          "name": "approver",
          "type": "address"
        }
      ],
      "name": "ERC721InvalidApprover",
      "type": "error"
    },
    {
      "inputs": [
        {
          "internalType": "address",
          "name": "operator",
          "type": "address"
        }
      ],
      "name": "ERC721InvalidOperator",
      "type": "error"
    },
    {
      "inputs": [
        {
          "internalType": "address",
          "name": "owner",
          "type": "address"
        }
      ],
      "name": "ERC721InvalidOwner",
      "type": "error"
    },
    {
      "inputs": [
        {
          "internalType": "address",
          "name": "receiver",
          "type": "address"
        }
      ],
      "name": "ERC721InvalidReceiver",
      "type": "error"
    },
    {
      "inputs": [
        {
          "internalType": "address",
          "name": "sender",
          "type": "address"
        }
      ],
      "name": "ERC721InvalidSender",
      "type": "error"
    },
    {
      "inputs": [
        {
          "internalType": "uint256",
          "name": "tokenId",
          "type": "uint256"
        }
      ],
      "name": "ERC721NonexistentToken",
      "type": "error"
    },
    {
      "inputs": [],
      "name": "InvalidInitialization",
      "type": "error"
    },
    {
      "inputs": [],
      "name": "NotInitializing",
      "type": "error"
    },
    {
      "inputs": [
        {
          "internalType": "address",
          "name": "owner",
          "type": "address"
        }
      ],
      "name": "OwnableInvalidOwner",
      "type": "error"
    },
    {
      "inputs": [
        {
          "internalType": "address",
          "name": "account",
          "type": "address"
        }
      ],
      "name": "OwnableUnauthorizedAccount",
      "type": "error"
    },
    {
      "anonymous": false,
      "inputs": [
        {
          "indexed": true,
          "internalType": "address",
          "name": "owner",
          "type": "address"
        },
        {
          "indexed": true,
          "internalType": "address",
          "name": "approved",
          "type": "address"
        },
        {
          "indexed": true,
          "internalType": "uint256",
          "name": "tokenId",
          "type": "uint256"
        }
      ],
      "name": "Approval",
      "type": "event"
    },
    {
      "anonymous": false,
      "inputs": [
        {
          "indexed": true,
          "internalType": "address",
          "name": "owner",
          "type": "address"
        },
        {
          "indexed": true,
          "internalType": "address",
          "name": "operator",
          "type": "address"
        },
        {
          "indexed": false,
          "internalType": "bool",
          "name": "approved",
          "type": "bool"
        }
      ],
      "name": "ApprovalForAll",
      "type": "event"
    },
    {
      "anonymous": false,
      "inputs": [
        {
          "indexed": false,
          "internalType": "string",
          "name": "newBaseURI",
          "type": "string"
        }
      ],
      "name": "BaseURIUpdated",
      "type": "event"
    },
    {
      "anonymous": false,
      "inputs": [
        {
          "indexed": true,
          "internalType": "address",
          "name": "to",
          "type": "address"
        },
        {
          "indexed": true,
          "internalType": "uint256",
          "name": "tokenId",
          "type": "uint256"
        },
        {
          "indexed": false,
          "internalType": "string",
          "name": "certificateData",
          "type": "string"
        }
      ],
      "name": "CertificateMinted",
      "type": "event"
    },
    {
      "anonymous": false,
      "inputs": [
        {
          "indexed": false,
          "internalType": "uint64",
          "name": "version",
          "type": "uint64"
        }
      ],
      "name": "Initialized",
      "type": "event"
    },
    {
      "anonymous": false,
      "inputs": [
        {
          "indexed": true,
          "internalType": "address",
          "name": "previousOwner",
          "type": "address"
        },
        {
          "indexed": true,
          "internalType": "address",
          "name": "newOwner",
          "type": "address"
        }
      ],
      "name": "OwnershipTransferStarted",
      "type": "event"
    },
    {
      "anonymous": false,
      "inputs": [
        {
          "indexed": true,
          "internalType": "address",
          "name": "previousOwner",
          "type": "address"
        },
        {
          "indexed": true,
          "internalType": "address",
          "name": "newOwner",
          "type": "address"
        }
      ],
      "name": "OwnershipTransferred",
      "type": "event"
    },
    {
      "anonymous": false,
      "inputs": [
        {
          "indexed": true,
          "internalType": "address",
          "name": "from",
          "type": "address"
        },
        {
          "indexed": true,
          "internalType": "address",
          "name": "to",
          "type": "address"
        },
        {
          "indexed": true,
          "internalType": "uint256",
          "name": "tokenId",
          "type": "uint256"
        }
      ],
      "name": "Transfer",
      "type": "event"
    },
    {
      "inputs": [],
      "name": "acceptOwnership",
      "outputs": [],
      "stateMutability": "nonpayable",
      "type": "function"
    },
    {
      "inputs": [
        {
          "internalType": "address",
          "name": "to",
          "type": "address"
        },
        {
          "internalType": "uint256",
          "name": "tokenId",
          "type": "uint256"
        }
      ],
      "name": "approve",
      "outputs": [],
      "stateMutability": "nonpayable",
      "type": "function"
    },
    {
      "inputs": [
        {
          "internalType": "address",
          "name": "owner",
          "type": "address"
        }
      ],
      "name": "balanceOf",
      "outputs": [
        {
          "internalType": "uint256",
          "name": "",
          "type": "uint256"
        }
      ],
      "stateMutability": "view",
      "type": "function"
    },
    {
      "inputs": [
        {
          "internalType": "uint256",
          "name": "tokenId",
          "type": "uint256"
        }
      ],
      "name": "getApproved",
      "outputs": [
        {
          "internalType": "address",
          "name": "",
          "type": "address"
        }
      ],
      "stateMutability": "view",
      "type": "function"
    },
    {
      "inputs": [
        {
          "internalType": "uint256",
          "name": "tokenId",
          "type": "uint256"
        }
      ],
      "name": "getCertificateDetails",
      "outputs": [
        {
          "internalType": "string",
          "name": "",
          "type": "string"
        }
      ],
      "stateMutability": "view",
      "type": "function"
    },
    {
      "inputs": [
        {
          "internalType": "string",
          "name": "name",
          "type": "string"
        },
        {
          "internalType": "string",
          "name": "symbol",
          "type": "string"
        },
        {
          "internalType": "string",
          "name": "baseURI",
          "type": "string"
        },
        {
          "internalType": "address",
          "name": "owner",
          "type": "address"
        }
      ],
      "name": "initialize",
      "outputs": [],
      "stateMutability": "nonpayable",
      "type": "function"
    },
    {
      "inputs": [
        {
          "internalType": "address",
          "name": "owner",
          "type": "address"
        },
        {
          "internalType": "address",
          "name": "operator",
          "type": "address"
        }
      ],
      "name": "isApprovedForAll",
      "outputs": [
        {
          "internalType": "bool",
          "name": "",
          "type": "bool"
        }
      ],
      "stateMutability": "view",
      "type": "function"
    },
    {
      "inputs": [],
      "name": "name",
      "outputs": [
        {
          "internalType": "string",
          "name": "",
          "type": "string"
        }
      ],
      "stateMutability": "view",
      "type": "function"
    },
    {
      "inputs": [],
      "name": "owner",
      "outputs": [
        {
          "internalType": "address",
          "name": "",
          "type": "address"
        }
      ],
      "stateMutability": "view",
      "type": "function"
    },
    {
      "inputs": [
        {
          "internalType": "uint256",
          "name": "tokenId",
          "type": "uint256"
        }
      ],
      "name": "ownerOf",
      "outputs": [
        {
          "internalType": "address",
          "name": "",
          "type": "address"
        }
      ],
      "stateMutability": "view",
      "type": "function"
    },
    {
      "inputs": [],
      "name": "pendingOwner",
      "outputs": [
        {
          "internalType": "address",
          "name": "",
          "type": "address"
        }
      ],
      "stateMutability": "view",
      "type": "function"
    },
    {
      "inputs": [],
      "name": "renounceOwnership",
      "outputs": [],
      "stateMutability": "nonpayable",
      "type": "function"
    },
    {
      "inputs": [
        {
          "internalType": "string",
          "name": "certificateData",
          "type": "string"
        }
      ],
      "name": "safeMint",
      "outputs": [],
      "stateMutability": "nonpayable",
      "type": "function"
    },
    {
      "inputs": [
        {
          "internalType": "address",
          "name": "from",
          "type": "address"
        },
        {
          "internalType": "address",
          "name": "to",
          "type": "address"
        },
        {
          "internalType": "uint256",
          "name": "tokenId",
          "type": "uint256"
        }
      ],
      "name": "safeTransferFrom",
      "outputs": [],
      "stateMutability": "nonpayable",
      "type": "function"
    },
    {
      "inputs": [
        {
          "internalType": "address",
          "name": "from",
          "type": "address"
        },
        {
          "internalType": "address",
          "name": "to",
          "type": "address"
        },
        {
          "internalType": "uint256",
          "name": "tokenId",
          "type": "uint256"
        },
        {
          "internalType": "bytes",
          "name": "data",
          "type": "bytes"
        }
      ],
      "name": "safeTransferFrom",
      "outputs": [],
      "stateMutability": "nonpayable",
      "type": "function"
    },
    {
      "inputs": [
        {
          "internalType": "address",
          "name": "operator",
          "type": "address"
        },
        {
          "internalType": "bool",
          "name": "approved",
          "type": "bool"
        }
      ],
      "name": "setApprovalForAll",
      "outputs": [],
      "stateMutability": "nonpayable",
      "type": "function"
    },
    {
      "inputs": [
        {
          "internalType": "bytes4",
          "name": "interfaceId",
          "type": "bytes4"
        }
      ],
      "name": "supportsInterface",
      "outputs": [
        {
          "internalType": "bool",
          "name": "",
          "type": "bool"
        }
      ],
      "stateMutability": "view",
      "type": "function"
    },
    {
      "inputs": [],
      "name": "symbol",
      "outputs": [
        {
          "internalType": "string",
          "name": "",
          "type": "string"
        }
      ],
      "stateMutability": "view",
      "type": "function"
    },
    {
      "inputs": [
        {
          "internalType": "uint256",
          "name": "_tokenId",
          "type": "uint256"
        }
      ],
      "name": "tokenURI",
      "outputs": [
        {
          "internalType": "string",
          "name": "",
          "type": "string"
        }
      ],
      "stateMutability": "view",
      "type": "function"
    },
    {
      "inputs": [
        {
          "internalType": "address",
          "name": "from",
          "type": "address"
        },
        {
          "internalType": "address",
          "name": "to",
          "type": "address"
        },
        {
          "internalType": "uint256",
          "name": "tokenId",
          "type": "uint256"
        }
      ],
      "name": "transferFrom",
      "outputs": [],
      "stateMutability": "nonpayable",
      "type": "function"
    },
    {
      "inputs": [
        {
          "internalType": "address",
          "name": "newOwner",
          "type": "address"
        }
      ],
      "name": "transferOwnership",
      "outputs": [],
      "stateMutability": "nonpayable",
      "type": "function"
    },
    {
      "inputs": [
        {
          "internalType": "string",
          "name": "newBaseURI",
          "type": "string"
        }
      ],
      "name": "updateBaseURI",
      "outputs": [],
      "stateMutability": "nonpayable",
      "type": "function"
    }
  ],
  "bytecode": "0x6080604052348015600f57600080fd5b506119378061001f6000396000f3fe608060405234801561001057600080fd5b50600436106101425760003560e01c806379ba5097116100b8578063a901fe5e1161007c578063a901fe5e1461028a578063b88d4fde1461029d578063c87b56dd146102b0578063e30c3978146102c3578063e985e9c5146102cb578063f2fde38b146102de57600080fd5b806379ba50971461024c5780638da5cb5b14610254578063931688cb1461025c57806395d89b411461026f578063a22cb4651461027757600080fd5b806342842e0e1161010a57806342842e0e146101d75780635c6d8da1146101ea5780636352211e146101fd578063695850fb1461021057806370a0823114610223578063715018a61461024457600080fd5b806301ffc9a71461014757806306fdde031461016f578063081812fc14610184578063095ea7b3146101af57806323b872dd146101c4575b600080fd5b61015a6101553660046112ca565b6102f1565b60405190151581526020015b60405180910390f35b610177610343565b604051610166919061133e565b610197610192366004611351565b6103e7565b6040516001600160a01b039091168152602001610166565b6101c26101bd366004611386565b6103fc565b005b6101c26101d23660046113b0565b61040b565b6101c26101e53660046113b0565b61049b565b6101c26101f836600461149d565b6104bb565b61019761020b366004611351565b610627565b6101c261021e366004611542565b610632565b610236610231366004611577565b61072b565b604051908152602001610166565b6101c2610787565b6101c261079b565b6101976107e3565b6101c261026a366004611542565b610818565b61017761088a565b6101c2610285366004611592565b6108c9565b610177610298366004611351565b6108d4565b6101c26102ab3660046115ce565b61097e565b6101776102be366004611351565b610996565b6101976109da565b61015a6102d936600461164a565b610a03565b6101c26102ec366004611577565b610a50565b60006001600160e01b031982166380ac58cd60e01b148061032257506001600160e01b03198216635b5e139f60e01b145b8061033d57506301ffc9a760e01b6001600160e01b03198316145b92915050565b6000805160206118e283398151915280546060919081906103639061167d565b80601f016020809104026020016040519081016040528092919081815260200182805461038f9061167d565b80156103dc5780601f106103b1576101008083540402835291602001916103dc565b820191906000526020600020905b8154815290600101906020018083116103bf57829003601f168201915b505050505091505090565b60006103f282610ad5565b5061033d82610b0d565b610407828233610b47565b5050565b6001600160a01b03821661043a57604051633250574960e11b8152600060048201526024015b60405180910390fd5b6000610447838333610b54565b9050836001600160a01b0316816001600160a01b031614610495576040516364283d7b60e01b81526001600160a01b0380861660048301526024820184905282166044820152606401610431565b50505050565b6104b68383836040518060200160405280600081525061097e565b505050565b60006104c5610c5e565b805490915060ff600160401b820416159067ffffffffffffffff166000811580156104ed5750825b905060008267ffffffffffffffff16600114801561050a5750303b155b905081158015610518575080155b156105365760405163f92ee8a960e01b815260040160405180910390fd5b845467ffffffffffffffff19166001178555831561056057845460ff60401b1916600160401b1785555b6001600160a01b0386166105b65760405162461bcd60e51b815260206004820152601c60248201527f4f776e65722063616e6e6f74206265207a65726f2061646472657373000000006044820152606401610431565b6105c08989610c87565b6105c986610c99565b60016105d588826116fe565b50831561061c57845460ff60401b19168555604051600181527fc7f505b2f371ae2175ee4913f4499e1f2633a7b5936321eed1cdaeb6115181d29060200160405180910390a15b505050505050505050565b600061033d82610ad5565b3360009081526003602052604090205460ff16156106925760405162461bcd60e51b815260206004820152601760248201527f557365722063616e206f6e6c79206d696e74204f6e63650000000000000000006044820152606401610431565b6000805481806106a1836117bd565b9091555060008181526002602052604090209091506106c083826116fe565b50336000818152600360205260409020805460ff191660011790556106e59082610caa565b80336001600160a01b03167fde5d6fd45e32fffb472bcbaeedf6a2e3944633c9701eec7d99adfa07ad6104c18460405161071f919061133e565b60405180910390a35050565b60006000805160206118e28339815191526001600160a01b038316610766576040516322718ad960e21b815260006004820152602401610431565b6001600160a01b039092166000908152600390920160205250604090205490565b61078f610cc4565b6107996000610cf6565b565b33806107a56109da565b6001600160a01b0316146107d75760405163118cdaa760e01b81526001600160a01b0382166004820152602401610431565b6107e081610cf6565b50565b6000807f9016d09d72d40fdae2fd8ceac6b6234c7706214fd39c1cd1e609a0528c1993005b546001600160a01b031692915050565b610820610cc4565b8051602082012060405161083690600190611856565b6040518091039020146107e057600161084f82826116fe565b507f6741b2fc379fad678116fe3d4d4b9a1a184ab53ba36b86ad0fa66340b1ab41ad8160405161087f919061133e565b60405180910390a150565b7f80bb2b638cc20bc4d0a60d66940f3ab4a00c1d7b313497ca82fb0b4ab007930180546060916000805160206118e2833981519152916103639061167d565b610407338383610d2e565b60606108df82610ad5565b50600082815260026020526040902080546108f99061167d565b80601f01602080910402602001604051908101604052809291908181526020018280546109259061167d565b80156109725780601f1061094757610100808354040283529160200191610972565b820191906000526020600020905b81548152906001019060200180831161095557829003601f168201915b50505050509050919050565b61098984848461040b565b6104953385858585610ddf565b60606109a182610ad5565b5060006109ad836108d4565b90506001816040516020016109c3929190611862565b604051602081830303815290604052915050919050565b6000807f237e158222e3e6968b72b9db0d8043aacf074ad9f650f0d1606b4d82ee432c00610808565b6001600160a01b0391821660009081527f80bb2b638cc20bc4d0a60d66940f3ab4a00c1d7b313497ca82fb0b4ab00793056020908152604080832093909416825291909152205460ff1690565b610a58610cc4565b7f237e158222e3e6968b72b9db0d8043aacf074ad9f650f0d1606b4d82ee432c0080546001600160a01b0319166001600160a01b0383169081178255610a9c6107e3565b6001600160a01b03167f38d16b8cac22d99fc7c124b9cd0de2d3fa1faef420bfe791d8c362d765e2270060405160405180910390a35050565b600080610ae183610f0a565b90506001600160a01b03811661033d57604051637e27328960e01b815260048101849052602401610431565b60009081527f80bb2b638cc20bc4d0a60d66940f3ab4a00c1d7b313497ca82fb0b4ab007930460205260409020546001600160a01b031690565b6104b68383836001610f44565b60006000805160206118e283398151915281610b6f85610f0a565b90506001600160a01b03841615610b8b57610b8b81858761105a565b6001600160a01b03811615610bcb57610ba8600086600080610f44565b6001600160a01b0381166000908152600383016020526040902080546000190190555b6001600160a01b03861615610bfc576001600160a01b03861660009081526003830160205260409020805460010190555b600085815260028301602052604080822080546001600160a01b0319166001600160a01b038a811691821790925591518893918516917fddf252ad1be2c89b69c2b068fc378daa952ba7f163c4a11628f55a4df523b3ef91a495945050505050565b6000807ff0c57e16840df040f15088dc2f81fe391c3923bec73e23a9662efc9c229c6a0061033d565b610c8f6110be565b61040782826110e3565b610ca16110be565b6107e081611114565b610407828260405180602001604052806000815250611146565b33610ccd6107e3565b6001600160a01b0316146107995760405163118cdaa760e01b8152336004820152602401610431565b7f237e158222e3e6968b72b9db0d8043aacf074ad9f650f0d1606b4d82ee432c0080546001600160a01b03191681556104078261115e565b6000805160206118e28339815191526001600160a01b038316610d6f57604051630b61174360e31b81526001600160a01b0384166004820152602401610431565b6001600160a01b038481166000818152600584016020908152604080832094881680845294825291829020805460ff191687151590811790915591519182527f17307eab39ab6107e8899845ad3d59bd9653f200f220920489ca2b5937696c31910160405180910390a350505050565b6001600160a01b0383163b15610f0357604051630a85bd0160e11b81526001600160a01b0384169063150b7a0290610e21908890889087908790600401611887565b6020604051808303816000875af1925050508015610e5c575060408051601f3d908101601f19168201909252610e59918101906118c4565b60015b610ec5573d808015610e8a576040519150601f19603f3d011682016040523d82523d6000602084013e610e8f565b606091505b508051600003610ebd57604051633250574960e11b81526001600160a01b0385166004820152602401610431565b805181602001fd5b6001600160e01b03198116630a85bd0160e11b14610f0157604051633250574960e11b81526001600160a01b0385166004820152602401610431565b505b5050505050565b60009081527f80bb2b638cc20bc4d0a60d66940f3ab4a00c1d7b313497ca82fb0b4ab007930260205260409020546001600160a01b031690565b6000805160206118e28339815191528180610f6757506001600160a01b03831615155b15611029576000610f7785610ad5565b90506001600160a01b03841615801590610fa35750836001600160a01b0316816001600160a01b031614155b8015610fb65750610fb48185610a03565b155b15610fdf5760405163a9fbf51f60e01b81526001600160a01b0385166004820152602401610431565b82156110275784866001600160a01b0316826001600160a01b03167f8c5be1e5ebec7d5bd14f71427d1e84f3dd0314c0f7b2291e5b200ac8c7c3b92560405160405180910390a45b505b600093845260040160205250506040902080546001600160a01b0319166001600160a01b0392909216919091179055565b6110658383836111cf565b6104b6576001600160a01b03831661109357604051637e27328960e01b815260048101829052602401610431565b60405163177e802f60e01b81526001600160a01b038316600482015260248101829052604401610431565b6110c6611235565b61079957604051631afcd79f60e31b815260040160405180910390fd5b6110eb6110be565b6000805160206118e28339815191528061110584826116fe565b506001810161049583826116fe565b61111c6110be565b6001600160a01b0381166107d757604051631e4fbdf760e01b815260006004820152602401610431565b611150838361124f565b6104b6336000858585610ddf565b7f9016d09d72d40fdae2fd8ceac6b6234c7706214fd39c1cd1e609a0528c19930080546001600160a01b031981166001600160a01b03848116918217845560405192169182907f8be0079c531659141344cd1fd0a4f28419497f9722a3daafe3b4186f6b6457e090600090a3505050565b60006001600160a01b0383161580159061122d5750826001600160a01b0316846001600160a01b0316148061120957506112098484610a03565b8061122d5750826001600160a01b031661122283610b0d565b6001600160a01b0316145b949350505050565b600061123f610c5e565b54600160401b900460ff16919050565b6001600160a01b03821661127957604051633250574960e11b815260006004820152602401610431565b600061128783836000610b54565b90506001600160a01b038116156104b6576040516339e3563760e11b815260006004820152602401610431565b6001600160e01b0319811681146107e057600080fd5b6000602082840312156112dc57600080fd5b81356112e7816112b4565b9392505050565b60005b838110156113095781810151838201526020016112f1565b50506000910152565b6000815180845261132a8160208601602086016112ee565b601f01601f19169290920160200192915050565b6020815260006112e76020830184611312565b60006020828403121561136357600080fd5b5035919050565b80356001600160a01b038116811461138157600080fd5b919050565b6000806040838503121561139957600080fd5b6113a28361136a565b946020939093013593505050565b6000806000606084860312156113c557600080fd5b6113ce8461136a565b92506113dc6020850161136a565b929592945050506040919091013590565b634e487b7160e01b600052604160045260246000fd5b60008067ffffffffffffffff84111561141e5761141e6113ed565b50604051601f19601f85018116603f0116810181811067ffffffffffffffff8211171561144d5761144d6113ed565b60405283815290508082840185101561146557600080fd5b83836020830137600060208583010152509392505050565b600082601f83011261148e57600080fd5b6112e783833560208501611403565b600080600080608085870312156114b357600080fd5b843567ffffffffffffffff8111156114ca57600080fd5b6114d68782880161147d565b945050602085013567ffffffffffffffff8111156114f357600080fd5b6114ff8782880161147d565b935050604085013567ffffffffffffffff81111561151c57600080fd5b6115288782880161147d565b9250506115376060860161136a565b905092959194509250565b60006020828403121561155457600080fd5b813567ffffffffffffffff81111561156b57600080fd5b61122d8482850161147d565b60006020828403121561158957600080fd5b6112e78261136a565b600080604083850312156115a557600080fd5b6115ae8361136a565b9150602083013580151581146115c357600080fd5b809150509250929050565b600080600080608085870312156115e457600080fd5b6115ed8561136a565b93506115fb6020860161136a565b925060408501359150606085013567ffffffffffffffff81111561161e57600080fd5b8501601f8101871361162f57600080fd5b61163e87823560208401611403565b91505092959194509250565b6000806040838503121561165d57600080fd5b6116668361136a565b91506116746020840161136a565b90509250929050565b600181811c9082168061169157607f821691505b6020821081036116b157634e487b7160e01b600052602260045260246000fd5b50919050565b601f8211156104b657806000526020600020601f840160051c810160208510156116de5750805b601f840160051c820191505b81811015610f0357600081556001016116ea565b815167ffffffffffffffff811115611718576117186113ed565b61172c81611726845461167d565b846116b7565b6020601f82116001811461176057600083156117485750848201515b600019600385901b1c1916600184901b178455610f03565b600084815260208120601f198516915b828110156117905787850151825560209485019460019092019101611770565b50848210156117ae5786840151600019600387901b60f8161c191681555b50505050600190811b01905550565b6000600182016117dd57634e487b7160e01b600052601160045260246000fd5b5060010190565b600081546117f18161167d565b600182168015611808576001811461181d5761184d565b60ff198316865281151582028601935061184d565b84600052602060002060005b8381101561184557815488820152600190910190602001611829565b505081860193505b50505092915050565b60006112e782846117e4565b600061186e82856117e4565b835161187e8183602088016112ee565b01949350505050565b6001600160a01b03858116825284166020820152604081018390526080606082018190526000906118ba90830184611312565b9695505050505050565b6000602082840312156118d657600080fd5b81516112e7816112b456fe80bb2b638cc20bc4d0a60d66940f3ab4a00c1d7b313497ca82fb0b4ab0079300a264697066735822122029eba02e40efc6c572203820d2144f802ca4a4617b553845148cdcb3db154c1c64736f6c634300081e0033",
  "linkReferences": {},
  "deployedLinkReferences": {}
}