{
  "_format": "hh-sol-artifact-1",
  "contractName": "CertificationNFT",
  "sourceName": "contracts/certificationNFT.sol",
  "abi": [
    {
      "inputs": [
        {
          "internalType": "address",
          "name": "sender",
          "type": "address"
        },
        {
          "internalType": "uint256",
          "name": "tokenId",
          "type": "uint256"
        },
        {
          "internalType": "address",
          "name": "owner",
          "type": "address"
        }
      ],
      "name": "ERC721IncorrectOwner",
      "type": "error"
    },
    {
      "inputs": [
        {
          "internalType": "address",
          "name": "operator",
          "type": "address"
        },
        {
          "internalType": "uint256",
          "name": "tokenId",
          "type": "uint256"
        }
      ],
      "name": "ERC721InsufficientApproval",
      "type": "error"
    },
    {
      "inputs": [
        {
          "internalType": "address",
          "name": "approver",
          "type": "address"
        }
      ],
      "name": "ERC721InvalidApprover",
      "type": "error"
    },
    {
      "inputs": [
        {
          "internalType": "address",
          "name": "operator",
          "type": "address"
        }
      ],
      "name": "ERC721InvalidOperator",
      "type": "error"
    },
    {
      "inputs": [
        {
          "internalType": "address",
          "name": "owner",
          "type": "address"
        }
      ],
      "name": "ERC721InvalidOwner",
      "type": "error"
    },
    {
      "inputs": [
        {
          "internalType": "address",
          "name": "receiver",
          "type": "address"
        }
      ],
      "name": "ERC721InvalidReceiver",
      "type": "error"
    },
    {
      "inputs": [
        {
          "internalType": "address",
          "name": "sender",
          "type": "address"
        }
      ],
      "name": "ERC721InvalidSender",
      "type": "error"
    },
    {
      "inputs": [
        {
          "internalType": "uint256",
          "name": "tokenId",
          "type": "uint256"
        }
      ],
      "name": "ERC721NonexistentToken",
      "type": "error"
    },
    {
      "inputs": [],
      "name": "InvalidInitialization",
      "type": "error"
    },
    {
      "inputs": [],
      "name": "NotInitializing",
      "type": "error"
    },
    {
      "inputs": [
        {
          "internalType": "address",
          "name": "owner",
          "type": "address"
        }
      ],
      "name": "OwnableInvalidOwner",
      "type": "error"
    },
    {
      "inputs": [
        {
          "internalType": "address",
          "name": "account",
          "type": "address"
        }
      ],
      "name": "OwnableUnauthorizedAccount",
      "type": "error"
    },
    {
      "anonymous": false,
      "inputs": [
        {
          "indexed": true,
          "internalType": "address",
          "name": "owner",
          "type": "address"
        },
        {
          "indexed": true,
          "internalType": "address",
          "name": "approved",
          "type": "address"
        },
        {
          "indexed": true,
          "internalType": "uint256",
          "name": "tokenId",
          "type": "uint256"
        }
      ],
      "name": "Approval",
      "type": "event"
    },
    {
      "anonymous": false,
      "inputs": [
        {
          "indexed": true,
          "internalType": "address",
          "name": "owner",
          "type": "address"
        },
        {
          "indexed": true,
          "internalType": "address",
          "name": "operator",
          "type": "address"
        },
        {
          "indexed": false,
          "internalType": "bool",
          "name": "approved",
          "type": "bool"
        }
      ],
      "name": "ApprovalForAll",
      "type": "event"
    },
    {
      "anonymous": false,
      "inputs": [
        {
          "indexed": false,
          "internalType": "string",
          "name": "newBaseURI",
          "type": "string"
        }
      ],
      "name": "BaseURIUpdated",
      "type": "event"
    },
    {
      "anonymous": false,
      "inputs": [
        {
          "indexed": true,
          "internalType": "address",
          "name": "to",
          "type": "address"
        },
        {
          "indexed": true,
          "internalType": "uint256",
          "name": "tokenId",
          "type": "uint256"
        },
        {
          "indexed": false,
          "internalType": "string",
          "name": "certificateData",
          "type": "string"
        }
      ],
      "name": "CertificateMinted",
      "type": "event"
    },
    {
      "anonymous": false,
      "inputs": [
        {
          "indexed": false,
          "internalType": "uint64",
          "name": "version",
          "type": "uint64"
        }
      ],
      "name": "Initialized",
      "type": "event"
    },
    {
      "anonymous": false,
      "inputs": [
        {
          "indexed": true,
          "internalType": "address",
          "name": "previousOwner",
          "type": "address"
        },
        {
          "indexed": true,
          "internalType": "address",
          "name": "newOwner",
          "type": "address"
        }
      ],
      "name": "OwnershipTransferStarted",
      "type": "event"
    },
    {
      "anonymous": false,
      "inputs": [
        {
          "indexed": true,
          "internalType": "address",
          "name": "previousOwner",
          "type": "address"
        },
        {
          "indexed": true,
          "internalType": "address",
          "name": "newOwner",
          "type": "address"
        }
      ],
      "name": "OwnershipTransferred",
      "type": "event"
    },
    {
      "anonymous": false,
      "inputs": [
        {
          "indexed": true,
          "internalType": "address",
          "name": "from",
          "type": "address"
        },
        {
          "indexed": true,
          "internalType": "address",
          "name": "to",
          "type": "address"
        },
        {
          "indexed": true,
          "internalType": "uint256",
          "name": "tokenId",
          "type": "uint256"
        }
      ],
      "name": "Transfer",
      "type": "event"
    },
    {
      "inputs": [],
      "name": "acceptOwnership",
      "outputs": [],
      "stateMutability": "nonpayable",
      "type": "function"
    },
    {
      "inputs": [
        {
          "internalType": "address",
          "name": "to",
          "type": "address"
        },
        {
          "internalType": "uint256",
          "name": "tokenId",
          "type": "uint256"
        }
      ],
      "name": "approve",
      "outputs": [],
      "stateMutability": "nonpayable",
      "type": "function"
    },
    {
      "inputs": [
        {
          "internalType": "address",
          "name": "owner",
          "type": "address"
        }
      ],
      "name": "balanceOf",
      "outputs": [
        {
          "internalType": "uint256",
          "name": "",
          "type": "uint256"
        }
      ],
      "stateMutability": "view",
      "type": "function"
    },
    {
      "inputs": [
        {
          "internalType": "uint256",
          "name": "tokenId",
          "type": "uint256"
        }
      ],
      "name": "getApproved",
      "outputs": [
        {
          "internalType": "address",
          "name": "",
          "type": "address"
        }
      ],
      "stateMutability": "view",
      "type": "function"
    },
    {
      "inputs": [
        {
          "internalType": "uint256",
          "name": "tokenId",
          "type": "uint256"
        }
      ],
      "name": "getCertificateDetails",
      "outputs": [
        {
          "internalType": "string",
          "name": "",
          "type": "string"
        }
      ],
      "stateMutability": "view",
      "type": "function"
    },
    {
      "inputs": [
        {
          "internalType": "string",
          "name": "name",
          "type": "string"
        },
        {
          "internalType": "string",
          "name": "symbol",
          "type": "string"
        },
        {
          "internalType": "string",
          "name": "baseURI",
          "type": "string"
        },
        {
          "internalType": "address",
          "name": "owner",
          "type": "address"
        }
      ],
      "name": "initialize",
      "outputs": [],
      "stateMutability": "nonpayable",
      "type": "function"
    },
    {
      "inputs": [
        {
          "internalType": "address",
          "name": "owner",
          "type": "address"
        },
        {
          "internalType": "address",
          "name": "operator",
          "type": "address"
        }
      ],
      "name": "isApprovedForAll",
      "outputs": [
        {
          "internalType": "bool",
          "name": "",
          "type": "bool"
        }
      ],
      "stateMutability": "view",
      "type": "function"
    },
    {
      "inputs": [],
      "name": "name",
      "outputs": [
        {
          "internalType": "string",
          "name": "",
          "type": "string"
        }
      ],
      "stateMutability": "view",
      "type": "function"
    },
    {
      "inputs": [],
      "name": "owner",
      "outputs": [
        {
          "internalType": "address",
          "name": "",
          "type": "address"
        }
      ],
      "stateMutability": "view",
      "type": "function"
    },
    {
      "inputs": [
        {
          "internalType": "uint256",
          "name": "tokenId",
          "type": "uint256"
        }
      ],
      "name": "ownerOf",
      "outputs": [
        {
          "internalType": "address",
          "name": "",
          "type": "address"
        }
      ],
      "stateMutability": "view",
      "type": "function"
    },
    {
      "inputs": [],
      "name": "pendingOwner",
      "outputs": [
        {
          "internalType": "address",
          "name": "",
          "type": "address"
        }
      ],
      "stateMutability": "view",
      "type": "function"
    },
    {
      "inputs": [],
      "name": "renounceOwnership",
      "outputs": [],
      "stateMutability": "nonpayable",
      "type": "function"
    },
    {
      "inputs": [
        {
          "internalType": "string",
          "name": "certificateData",
          "type": "string"
        }
      ],
      "name": "safeMint",
      "outputs": [],
      "stateMutability": "nonpayable",
      "type": "function"
    },
    {
      "inputs": [
        {
          "internalType": "address",
          "name": "from",
          "type": "address"
        },
        {
          "internalType": "address",
          "name": "to",
          "type": "address"
        },
        {
          "internalType": "uint256",
          "name": "tokenId",
          "type": "uint256"
        }
      ],
      "name": "safeTransferFrom",
      "outputs": [],
      "stateMutability": "nonpayable",
      "type": "function"
    },
    {
      "inputs": [
        {
          "internalType": "address",
          "name": "from",
          "type": "address"
        },
        {
          "internalType": "address",
          "name": "to",
          "type": "address"
        },
        {
          "internalType": "uint256",
          "name": "tokenId",
          "type": "uint256"
        },
        {
          "internalType": "bytes",
          "name": "data",
          "type": "bytes"
        }
      ],
      "name": "safeTransferFrom",
      "outputs": [],
      "stateMutability": "nonpayable",
      "type": "function"
    },
    {
      "inputs": [
        {
          "internalType": "address",
          "name": "operator",
          "type": "address"
        },
        {
          "internalType": "bool",
          "name": "approved",
          "type": "bool"
        }
      ],
      "name": "setApprovalForAll",
      "outputs": [],
      "stateMutability": "nonpayable",
      "type": "function"
    },
    {
      "inputs": [
        {
          "internalType": "bytes4",
          "name": "interfaceId",
          "type": "bytes4"
        }
      ],
      "name": "supportsInterface",
      "outputs": [
        {
          "internalType": "bool",
          "name": "",
          "type": "bool"
        }
      ],
      "stateMutability": "view",
      "type": "function"
    },
    {
      "inputs": [],
      "name": "symbol",
      "outputs": [
        {
          "internalType": "string",
          "name": "",
          "type": "string"
        }
      ],
      "stateMutability": "view",
      "type": "function"
    },
    {
      "inputs": [
        {
          "internalType": "uint256",
          "name": "_tokenId",
          "type": "uint256"
        }
      ],
      "name": "tokenURI",
      "outputs": [
        {
          "internalType": "string",
          "name": "",
          "type": "string"
        }
      ],
      "stateMutability": "view",
      "type": "function"
    },
    {
      "inputs": [
        {
          "internalType": "address",
          "name": "from",
          "type": "address"
        },
        {
          "internalType": "address",
          "name": "to",
          "type": "address"
        },
        {
          "internalType": "uint256",
          "name": "tokenId",
          "type": "uint256"
        }
      ],
      "name": "transferFrom",
      "outputs": [],
      "stateMutability": "nonpayable",
      "type": "function"
    },
    {
      "inputs": [
        {
          "internalType": "address",
          "name": "newOwner",
          "type": "address"
        }
      ],
      "name": "transferOwnership",
      "outputs": [],
      "stateMutability": "nonpayable",
      "type": "function"
    },
    {
      "inputs": [
        {
          "internalType": "string",
          "name": "newBaseURI",
          "type": "string"
        }
      ],
      "name": "updateBaseURI",
      "outputs": [],
      "stateMutability": "nonpayable",
      "type": "function"
    }
  ],
  "bytecode": "0x6080604052348015600f57600080fd5b506118bd8061001f6000396000f3fe608060405234801561001057600080fd5b50600436106101425760003560e01c806379ba5097116100b8578063a901fe5e1161007c578063a901fe5e1461028a578063b88d4fde1461029d578063c87b56dd146102b0578063e30c3978146102c3578063e985e9c5146102cb578063f2fde38b146102de57600080fd5b806379ba50971461024c5780638da5cb5b14610254578063931688cb1461025c57806395d89b411461026f578063a22cb4651461027757600080fd5b806342842e0e1161010a57806342842e0e146101d75780635c6d8da1146101ea5780636352211e146101fd578063695850fb1461021057806370a0823114610223578063715018a61461024457600080fd5b806301ffc9a71461014757806306fdde031461016f578063081812fc14610184578063095ea7b3146101af57806323b872dd146101c4575b600080fd5b61015a610155366004611250565b6102f1565b60405190151581526020015b60405180910390f35b610177610343565b60405161016691906112c4565b6101976101923660046112d7565b6103e7565b6040516001600160a01b039091168152602001610166565b6101c26101bd36600461130c565b6103fc565b005b6101c26101d2366004611336565b61040b565b6101c26101e5366004611336565b61049b565b6101c26101f8366004611423565b6104bb565b61019761020b3660046112d7565b610627565b6101c261021e3660046114c8565b610632565b6102366102313660046114fd565b6106b1565b604051908152602001610166565b6101c261070d565b6101c2610721565b610197610769565b6101c261026a3660046114c8565b61079e565b610177610810565b6101c2610285366004611518565b61084f565b6101776102983660046112d7565b61085a565b6101c26102ab366004611554565b610904565b6101776102be3660046112d7565b61091c565b610197610960565b61015a6102d93660046115d0565b610989565b6101c26102ec3660046114fd565b6109d6565b60006001600160e01b031982166380ac58cd60e01b148061032257506001600160e01b03198216635b5e139f60e01b145b8061033d57506301ffc9a760e01b6001600160e01b03198316145b92915050565b600080516020611868833981519152805460609190819061036390611603565b80601f016020809104026020016040519081016040528092919081815260200182805461038f90611603565b80156103dc5780601f106103b1576101008083540402835291602001916103dc565b820191906000526020600020905b8154815290600101906020018083116103bf57829003601f168201915b505050505091505090565b60006103f282610a5b565b5061033d82610a93565b610407828233610acd565b5050565b6001600160a01b03821661043a57604051633250574960e11b8152600060048201526024015b60405180910390fd5b6000610447838333610ada565b9050836001600160a01b0316816001600160a01b031614610495576040516364283d7b60e01b81526001600160a01b0380861660048301526024820184905282166044820152606401610431565b50505050565b6104b683838360405180602001604052806000815250610904565b505050565b60006104c5610be4565b805490915060ff600160401b820416159067ffffffffffffffff166000811580156104ed5750825b905060008267ffffffffffffffff16600114801561050a5750303b155b905081158015610518575080155b156105365760405163f92ee8a960e01b815260040160405180910390fd5b845467ffffffffffffffff19166001178555831561056057845460ff60401b1916600160401b1785555b6001600160a01b0386166105b65760405162461bcd60e51b815260206004820152601c60248201527f4f776e65722063616e6e6f74206265207a65726f2061646472657373000000006044820152606401610431565b6105c08989610c0d565b6105c986610c1f565b60016105d58882611684565b50831561061c57845460ff60401b19168555604051600181527fc7f505b2f371ae2175ee4913f4499e1f2633a7b5936321eed1cdaeb6115181d29060200160405180910390a15b505050505050505050565b600061033d82610a5b565b60008054818061064183611743565b9091555060008181526002602052604090209091506106608382611684565b5061066b3382610c30565b80336001600160a01b03167fde5d6fd45e32fffb472bcbaeedf6a2e3944633c9701eec7d99adfa07ad6104c1846040516106a591906112c4565b60405180910390a35050565b60006000805160206118688339815191526001600160a01b0383166106ec576040516322718ad960e21b815260006004820152602401610431565b6001600160a01b039092166000908152600390920160205250604090205490565b610715610c4a565b61071f6000610c7c565b565b338061072b610960565b6001600160a01b03161461075d5760405163118cdaa760e01b81526001600160a01b0382166004820152602401610431565b61076681610c7c565b50565b6000807f9016d09d72d40fdae2fd8ceac6b6234c7706214fd39c1cd1e609a0528c1993005b546001600160a01b031692915050565b6107a6610c4a565b805160208201206040516107bc906001906117dc565b6040518091039020146107665760016107d58282611684565b507f6741b2fc379fad678116fe3d4d4b9a1a184ab53ba36b86ad0fa66340b1ab41ad8160405161080591906112c4565b60405180910390a150565b7f80bb2b638cc20bc4d0a60d66940f3ab4a00c1d7b313497ca82fb0b4ab007930180546060916000805160206118688339815191529161036390611603565b610407338383610cb4565b606061086582610a5b565b506000828152600260205260409020805461087f90611603565b80601f01602080910402602001604051908101604052809291908181526020018280546108ab90611603565b80156108f85780601f106108cd576101008083540402835291602001916108f8565b820191906000526020600020905b8154815290600101906020018083116108db57829003601f168201915b50505050509050919050565b61090f84848461040b565b6104953385858585610d65565b606061092782610a5b565b5060006109338361085a565b90506001816040516020016109499291906117e8565b604051602081830303815290604052915050919050565b6000807f237e158222e3e6968b72b9db0d8043aacf074ad9f650f0d1606b4d82ee432c0061078e565b6001600160a01b0391821660009081527f80bb2b638cc20bc4d0a60d66940f3ab4a00c1d7b313497ca82fb0b4ab00793056020908152604080832093909416825291909152205460ff1690565b6109de610c4a565b7f237e158222e3e6968b72b9db0d8043aacf074ad9f650f0d1606b4d82ee432c0080546001600160a01b0319166001600160a01b0383169081178255610a22610769565b6001600160a01b03167f38d16b8cac22d99fc7c124b9cd0de2d3fa1faef420bfe791d8c362d765e2270060405160405180910390a35050565b600080610a6783610e90565b90506001600160a01b03811661033d57604051637e27328960e01b815260048101849052602401610431565b60009081527f80bb2b638cc20bc4d0a60d66940f3ab4a00c1d7b313497ca82fb0b4ab007930460205260409020546001600160a01b031690565b6104b68383836001610eca565b600060008051602061186883398151915281610af585610e90565b90506001600160a01b03841615610b1157610b11818587610fe0565b6001600160a01b03811615610b5157610b2e600086600080610eca565b6001600160a01b0381166000908152600383016020526040902080546000190190555b6001600160a01b03861615610b82576001600160a01b03861660009081526003830160205260409020805460010190555b600085815260028301602052604080822080546001600160a01b0319166001600160a01b038a811691821790925591518893918516917fddf252ad1be2c89b69c2b068fc378daa952ba7f163c4a11628f55a4df523b3ef91a495945050505050565b6000807ff0c57e16840df040f15088dc2f81fe391c3923bec73e23a9662efc9c229c6a0061033d565b610c15611044565b6104078282611069565b610c27611044565b6107668161109a565b6104078282604051806020016040528060008152506110cc565b33610c53610769565b6001600160a01b03161461071f5760405163118cdaa760e01b8152336004820152602401610431565b7f237e158222e3e6968b72b9db0d8043aacf074ad9f650f0d1606b4d82ee432c0080546001600160a01b0319168155610407826110e4565b6000805160206118688339815191526001600160a01b038316610cf557604051630b61174360e31b81526001600160a01b0384166004820152602401610431565b6001600160a01b038481166000818152600584016020908152604080832094881680845294825291829020805460ff191687151590811790915591519182527f17307eab39ab6107e8899845ad3d59bd9653f200f220920489ca2b5937696c31910160405180910390a350505050565b6001600160a01b0383163b15610e8957604051630a85bd0160e11b81526001600160a01b0384169063150b7a0290610da790889088908790879060040161180d565b6020604051808303816000875af1925050508015610de2575060408051601f3d908101601f19168201909252610ddf9181019061184a565b60015b610e4b573d808015610e10576040519150601f19603f3d011682016040523d82523d6000602084013e610e15565b606091505b508051600003610e4357604051633250574960e11b81526001600160a01b0385166004820152602401610431565b805181602001fd5b6001600160e01b03198116630a85bd0160e11b14610e8757604051633250574960e11b81526001600160a01b0385166004820152602401610431565b505b5050505050565b60009081527f80bb2b638cc20bc4d0a60d66940f3ab4a00c1d7b313497ca82fb0b4ab007930260205260409020546001600160a01b031690565b6000805160206118688339815191528180610eed57506001600160a01b03831615155b15610faf576000610efd85610a5b565b90506001600160a01b03841615801590610f295750836001600160a01b0316816001600160a01b031614155b8015610f3c5750610f3a8185610989565b155b15610f655760405163a9fbf51f60e01b81526001600160a01b0385166004820152602401610431565b8215610fad5784866001600160a01b0316826001600160a01b03167f8c5be1e5ebec7d5bd14f71427d1e84f3dd0314c0f7b2291e5b200ac8c7c3b92560405160405180910390a45b505b600093845260040160205250506040902080546001600160a01b0319166001600160a01b0392909216919091179055565b610feb838383611155565b6104b6576001600160a01b03831661101957604051637e27328960e01b815260048101829052602401610431565b60405163177e802f60e01b81526001600160a01b038316600482015260248101829052604401610431565b61104c6111bb565b61071f57604051631afcd79f60e31b815260040160405180910390fd5b611071611044565b6000805160206118688339815191528061108b8482611684565b50600181016104958382611684565b6110a2611044565b6001600160a01b03811661075d57604051631e4fbdf760e01b815260006004820152602401610431565b6110d683836111d5565b6104b6336000858585610d65565b7f9016d09d72d40fdae2fd8ceac6b6234c7706214fd39c1cd1e609a0528c19930080546001600160a01b031981166001600160a01b03848116918217845560405192169182907f8be0079c531659141344cd1fd0a4f28419497f9722a3daafe3b4186f6b6457e090600090a3505050565b60006001600160a01b038316158015906111b35750826001600160a01b0316846001600160a01b0316148061118f575061118f8484610989565b806111b35750826001600160a01b03166111a883610a93565b6001600160a01b0316145b949350505050565b60006111c5610be4565b54600160401b900460ff16919050565b6001600160a01b0382166111ff57604051633250574960e11b815260006004820152602401610431565b600061120d83836000610ada565b90506001600160a01b038116156104b6576040516339e3563760e11b815260006004820152602401610431565b6001600160e01b03198116811461076657600080fd5b60006020828403121561126257600080fd5b813561126d8161123a565b9392505050565b60005b8381101561128f578181015183820152602001611277565b50506000910152565b600081518084526112b0816020860160208601611274565b601f01601f19169290920160200192915050565b60208152600061126d6020830184611298565b6000602082840312156112e957600080fd5b5035919050565b80356001600160a01b038116811461130757600080fd5b919050565b6000806040838503121561131f57600080fd5b611328836112f0565b946020939093013593505050565b60008060006060848603121561134b57600080fd5b611354846112f0565b9250611362602085016112f0565b929592945050506040919091013590565b634e487b7160e01b600052604160045260246000fd5b60008067ffffffffffffffff8411156113a4576113a4611373565b50604051601f19601f85018116603f0116810181811067ffffffffffffffff821117156113d3576113d3611373565b6040528381529050808284018510156113eb57600080fd5b83836020830137600060208583010152509392505050565b600082601f83011261141457600080fd5b61126d83833560208501611389565b6000806000806080858703121561143957600080fd5b843567ffffffffffffffff81111561145057600080fd5b61145c87828801611403565b945050602085013567ffffffffffffffff81111561147957600080fd5b61148587828801611403565b935050604085013567ffffffffffffffff8111156114a257600080fd5b6114ae87828801611403565b9250506114bd606086016112f0565b905092959194509250565b6000602082840312156114da57600080fd5b813567ffffffffffffffff8111156114f157600080fd5b6111b384828501611403565b60006020828403121561150f57600080fd5b61126d826112f0565b6000806040838503121561152b57600080fd5b611534836112f0565b91506020830135801515811461154957600080fd5b809150509250929050565b6000806000806080858703121561156a57600080fd5b611573856112f0565b9350611581602086016112f0565b925060408501359150606085013567ffffffffffffffff8111156115a457600080fd5b8501601f810187136115b557600080fd5b6115c487823560208401611389565b91505092959194509250565b600080604083850312156115e357600080fd5b6115ec836112f0565b91506115fa602084016112f0565b90509250929050565b600181811c9082168061161757607f821691505b60208210810361163757634e487b7160e01b600052602260045260246000fd5b50919050565b601f8211156104b657806000526020600020601f840160051c810160208510156116645750805b601f840160051c820191505b81811015610e895760008155600101611670565b815167ffffffffffffffff81111561169e5761169e611373565b6116b2816116ac8454611603565b8461163d565b6020601f8211600181146116e657600083156116ce5750848201515b600019600385901b1c1916600184901b178455610e89565b600084815260208120601f198516915b8281101561171657878501518255602094850194600190920191016116f6565b50848210156117345786840151600019600387901b60f8161c191681555b50505050600190811b01905550565b60006001820161176357634e487b7160e01b600052601160045260246000fd5b5060010190565b6000815461177781611603565b60018216801561178e57600181146117a3576117d3565b60ff19831686528115158202860193506117d3565b84600052602060002060005b838110156117cb578154888201526001909101906020016117af565b505081860193505b50505092915050565b600061126d828461176a565b60006117f4828561176a565b8351611804818360208801611274565b01949350505050565b6001600160a01b038581168252841660208201526040810183905260806060820181905260009061184090830184611298565b9695505050505050565b60006020828403121561185c57600080fd5b815161126d8161123a56fe80bb2b638cc20bc4d0a60d66940f3ab4a00c1d7b313497ca82fb0b4ab0079300a2646970667358221220dd0eca2c4f3af095e9e55d1d0234ac2a4306134bce4da5605562314287b5d13c64736f6c634300081e0033",
  "linkReferences": {},
  "deployedLinkReferences": {}
}